:100000000C9461030C94A8030C94A8030C94A8030B
:100010000C94A8030C94A8030C94A8030C94A803B4
:100020000C94A8030C94A8030C94CB2D0C949D2E37
:100030000C94FF250C94A8030C94A8030C94A8031B
:100040000C94A8030C94A8030C94A8030C94A80384
:100050000C94A8030C9474260C94A8030C94A80385
:100060000C94A8030C94A8030C94A8030C94A80364
:100070000C94A8030C94A8030C94A8030C94A80354
:100080000C94A8030C94A8030C94A8030C94A80344
:100090000C94A8030C94A8030C94A8030C94A80334
:1000A0000C94A8030C94A8030C94A8039813A11310
:1000B000A613AB13B013B513BA13BF13C413C913EC
:1000C000CE13D313D813DD13E213E713EC13F1139C
:1000D000F613FB13001405140A140F141414191446
:1000E0001E14231428142D14321437143C144114F4
:1000F00046144B145014DA15DD15E215E915EE150A
:10010000F315F815FD15021607160C161116131621
:10011000151617161D161D161D161D161D16F31B7A
:10012000F31B251C251C6C1C8A1CAB1DAB1D951CD0
:100130002A1D3B1D3B1D9B1DAB1DAB1DA41D591E48
:10014000591E6B1E6B1E621E6B1E6B1E6B1E591E94
:10015000591E671E6B1E6B1E671E0A2F312F29301A
:10016000312F29307D2FA02F2930F72F0630140092
:100170001A00090013000500000000000D000F0028
:1001800018001C00340004681564166117620A0028
:10019000000000001000116208610C6412681D006C
:1001A0001B74060007001900000000000E000B0081
:1001B0003600377438000000000029422C432B44DD
:1001C0000000000028452A464C47000000000100BE
:1001D0000100010001000100000000000100010019
:1001E0000100010001000100010001000100010007
:1001F00000000000010001000100010001000100F9
:1002000001000100010001000000000001000100E8
:1002100001000100010000000000010001000100D8
:1002200000000000F400F600F50000000000005C93
:10023000000000000000000000000000BF5CC05C87
:10024000C25CC45CC65CE300E200E000E1000000C8
:10025000000000000000AC00AA00A900AB000000F4
:10026000E6000000000000000000000000000000A8
:10027000000000000000000000000000000000007E
:1002800000000000AD00AE00A80000000000005C0F
:10029000000000000000000000000000790049029A
:1002A00049014C027A00E300E200E000E1000000B6
:1002B0000000000039005000510052004F000000C3
:1002C000E6000000000000000000000049004A00B5
:1002D0004E004B004D000000000000000000000038
:1002E0000000000028002A004C0000000000005C14
:1002F00000000000000000000000000000000000FE
:10030000000000000000E300E200E000E100000067
:10031000000000000000F200F100F000F300000017
:10032000E600000000000000000000000000FB00EC
:10033000FA00F900FC0000000000000000000000CE
:1003400000000000F400F600F500000000002F029D
:1003500024022502260230020000000000000000F6
:1003600000000000005C33022102220223022E0260
:10037000000000000000E100E000E200E3003502C0
:100380001E021F02200231020000000000000000D7
:100390000000E600000000000000260227022D02F7
:1003A00000000000000000000000000000002F001E
:1003B000240025002600300000000000000000009E
:1003C00000000000005C33002100220023002E000A
:1003D000000000000000E100E000E200E300350062
:1003E0001E001F002000310000000000000000007F
:1003F0000000E600000000000000370027002D008C
:1004000000000000000000000000000000004500A7
:1004100040004100420046000000000000000000D3
:1004200000000000005C44003D003E003F0047002B
:10043000000000000000E100E000E200E3004300F3
:100440003A003B003C0048000000000000000000B3
:100450000000E60000000000000065002C002B00FA
:10046000000000000000000000000000000000018B
:100470000101010101010101020202020202020264
:100480000203030303030303030404040404040436
:1004900005050505050606060606070707070708FA
:1004A000080808090909090A0A0A0B0B0B0C0C0CAD
:1004B0000D0D0D0E0E0E0F0F0F1010111111121247
:1004C00013131414151516161717181819191A1AC4
:1004D0001B1B1C1D1D1E1E1F202021222223242425
:1004E000252626272829292A2B2C2D2D2E2F303161
:1004F0003232333435363738393A3B3C3D3E3F4073
:100500004142434445464748494A4C4D4E4F50515D
:100510005354555658595A5B5D5E5F616264656617
:1005200068696B6C6D6F7072737577787A7B7D7E9E
:100530008082838587888A8C8E8F91939596989AEE
:100540009C9EA0A2A3A5A7A9ABADAFB1B3B5B7BA06
:10055000BCBEC0C2C4C6C9CBCDCFD1D4D6D8DBDDDA
:10056000DFE2E4E7E9EBEEF0F3F5F8FAFDFF040370
:1005700030000000220342004D0034003000200013
:1005800048006F0074007300770061007000200065
:10059000520047004200000016034B00500052007A
:1005A00065007000750062006C0069006300000067
:1005B0000403090409023B00020100A0FA09040037
:1005C000000103010100092111010001224000077F
:1005D00005810308000A0904010001030000000965
:1005E00021110100012281000705820320000A1267
:1005F00001100100000008EDFE606001000102032F
:100600000105010902A10185020901A100050919DD
:1006100001290515002501950575018102950175D2
:100620000381010501093009311581257F95027586
:1006300008810609381581257F9501750881060511
:100640000C0A38021581257F950175088106C0C006
:1006500005010980A101850319012AB700150126AA
:10066000B700950175108100C0050C0901A1018535
:100670000419012AA002150126A002950175108116
:1006800000C005010906A101050719E029E71500C9
:1006900025019508750181029501750881010507FD
:1006A000190029FF150026FF009506750881000531
:1006B00008190129059505750191029501750391A8
:1006C00001C011241FBECFEFDAE0DEBFCDBF04B6FC
:1006D00003FE27C08091360490913704A09138041E
:1006E000B09139048730904BA740B04BD1F41092B1
:1006F000360410923704109238041092390414BE54
:1007000084B7877F84BF0FB6F894A8958091600066
:10071000886180936000109260000FBEE0E0F8E313
:10072000099512E0A0E0B1E0EEE4F3E602C0059026
:100730000D92A437B107D9F724E0A4E7B2E001C0D5
:100740001D92A633B207E1F70E94092B0C94A53144
:100750000C9400009C013A9521153F4138F5DC01CD
:10076000AA27B270AC01442754709C01222738702C
:1007700094FF0FC090FF02C080E101C080E0AB2B6E
:1007800009F08062452B09F08064232B69F08068B2
:100790000BC0892F8170AB2B09F08260452B09F0CB
:1007A0008460232B09F08860FB0109940895CF939E
:1007B000DF93EC01805E9109089710F0209719F4FF
:1007C0006FEA7BE102C06FE17EE1CE010E94AA03E5
:1007D0008C2FDF91CF910C948A1ACF93DF93EC0189
:1007E0000E94341BCE01805E9109089710F020977B
:1007F00019F466EB7BE102C066E27EE1CE01DF9197
:10080000CF910C94AA03CF93DF93EC010E94D703FE
:10081000CE01DF91CF910C94ED0381E0089581E04A
:1008200008950C940F0408950C9413041F93CF9310
:10083000DF9300D000D01F92CDB7DEB749835A8333
:100840006B833091BB0289819A81311114C0662378
:1008500059F0222349F00E947B23182F682F8981A9
:100860009A810E94242303C00E944F23182F69817C
:100870007A81812F04C00E947B2369817A810F9045
:100880000F900F900F900F90DF91CF911F910C94CC
:10089000E004FC01262F40815181628173818481B3
:1008A0000C941604CF93DF93EC0160E00E9449049E
:1008B000BE01DF91CF910C9414040E94C0260E94C7
:1008C000B324811102C00E9453250E9492140C94FB
:1008D000FF060E9404130C94FB0608950C946D040B
:1008E00081E008950C947004CF93C82F0E946E0489
:1008F0008C2F0E947204CF91089508950E94471E84
:100900000E947D042FEF84E39CE0215080409040C2
:10091000E1F700C000000C949A260F931F93CF9329
:10092000DF93EC0161E00E9449048C01BE010E944A
:100930006E128823D9F1BE01C8010E9411048823D8
:10094000A9F1BE01C8010E94DC18882379F1BE011B
:10095000C8010E94E616882349F1BE01C8010E9421
:100960003817882319F1BE01C8010E946318882333
:10097000E9F0BE01C8010E94C3158823B9F08A813D
:10098000882369F001158CE5180731F00B3D1C45F3
:1009900031F40E9453250AC00E947E0407C0CE0194
:1009A000DF91CF911F910F910C940D0480E0DF91A6
:1009B000CF911F910F91089580E090E008950895E0
:1009C00020E3829FC0011124FC012CE0729FE00D06
:1009D000F11D1124E60FF11DEE0FFF1FE259FE4F2E
:1009E000859194910895880F991FFC01E259FB4F5E
:1009F000859194910895CF93DF930E94E0040E9423
:100A00001306EC018115904508F041C0C11580E442
:100A1000D80708F0D1C0C83ED10510F5C03ED105B9
:100A200008F0FDC0C83AD10578F4C53AD10508F000
:100A3000A2C0C130D10509F4F2C008F4EEC0C43040
:100A4000D10508F0ECC0E9C0CF3BD10508F49BC04C
:100A5000C03CD10508F4E1C0CE01805C91099EC084
:100A6000C11590E2D90758F4C11521E0D20708F06A
:100A7000D6C0C03FD10508F4D0C0D065D0C0C115E4
:100A800080E3D80708F08EC0CE019F7087C0C115E3
:100A900095E5D90708F043C0C11524E5D20708F051
:100AA000A2C0C11582E5D80708F5C11591E5D9079F
:100AB00008F085C0CE0174E0969587957A95E1F7A8
:100AC00083709C2F937021E030E002C0220F331F0F
:100AD0009A95E2F73C68382BCF70C695C69580E2B0
:100AE000C89FE0011124C22BD32B99C09E01237013
:100AF00033278C2F86958695C115D34508F064C0A1
:100B0000C1E0D0E002C0CC0FDD1F2A95E2F720E261
:100B1000829FC0011124C82BD92BDC6880C0C1156D
:100B200029E5D207A0F4C11588E5D80708F060C010
:100B3000C11596E5D90708F070C08C2F0E94A70652
:100B40008F71C82FD0E0DC2FCC27D06268C0C115D0
:100B50002AE5D20708F451C0CE0190568115904283
:100B600008F05BC08D2F8F710E94A706DD27D06231
:100B70008F71D82B54C0C55AD0E0C05EDD4FC881FC
:100B8000D0E0D0644CC0C85AD0E0CC0FDD1FCE50AE
:100B9000DE4F0990D881C02DD46441C00E94F30477
:100BA000EC013DC0CE019927D3FF03C0EC01D86C06
:100BB00036C0EC01D06C33C0DF70D06A30C0DC2F9F
:100BC000CC27C16FD06A2BC0C1E0D0E002C0CC0FEF
:100BD000DD1F2A95E2F720E2829FC0011124C82B75
:100BE000D92BDA681CC0DC2FCC27C46FD06A17C0A1
:100BF000DC2FCC27C06FD06A12C08C2F8F700E9460
:100C0000A70694E0D695C7959A95E1F7CF70D0E006
:100C1000DC2FCC27D069C82B02C0C0E0D0E0CE01C9
:100C2000DF91CF9108958238910569F1B0F4813355
:100C3000910509F46DC048F48932910509F463C047
:100C40008A32910509F469C008958533910509F444
:100C500055C089339105B9F00895833E910569F136
:100C600038F4803E9105B1F0823E910509F1089576
:100C7000863E9105A9F1873E9105B9F1843E910523
:100C800009F064C023C02091270420FD4FC021FD3E
:100C90004DC008958091270480FD44C080912804B0
:100CA00080FF44C08091270484FD42C083EE4DC084
:100CB0008091270482FF38C0F5CF8091270482FD00
:100CC00033C08091280480FD31C0ECCF809128048E
:100CD00081FF32C08091270484FD2AC087EE35C091
:100CE0008091270483FF26C0F5CF8091270483FDE0
:100CF00021C08091280481FD1FC0ECCF8091270482
:100D000085FD1CC01DC08091270485FD19C016C03B
:100D10008091270486FD16C017C08091270486FDA8
:100D200013C010C089E311C082EE0FC080EE0DC069
:100D300080E00BC086EE09C084EE07C089E205C0E2
:100D400085E303C08AE201C081E390E008959091B9
:100D5000270492FF0DC0282F2871283019F4877FAF
:100D6000846006C0282F2471243011F48B7F8860A2
:100D700093FF0DC0282F2871283119F4877E8461D4
:100D800006C0282F2471243111F48B7E88612091B4
:100D9000280420FF0DC0382F3871383019F4877FB0
:100DA000816006C0382F3171313011F48E7F886038
:100DB00021FF0DC0282F2871283119F4877E816109
:100DC00006C0282F2171213111F48E7E886194FD97
:100DD000877E0895E82FF0E0EE0FFF1FE65BFC4FE3
:100DE000808191810895089580EA8A95F1F70895A8
:100DF00008950C94F8060C94F9060C94F8060C94DB
:100E0000FD06CF93DF93AFE2B2E043E352E061E04F
:100E100070E08D91E82FE295EF70F0E021A18F70E6
:100E2000EB0102C0CC0FDD1F8A95E2F7CE019C2FAB
:100E30009095922391A392A1892B82A34A175B07D5
:100E400041F7A3E2B2E041E050E08D91E82FE29556
:100E5000EF70F0E021A18F70BA0102C0660F771F1A
:100E60008A95E2F7CB01962F9095922391A392A1B8
:100E7000892B82A372E0AF32B70739F71092430390
:100E80001092420310924B0310924A0310924503B2
:100E90001092440310924D0310924C03109247039A
:100EA0001092460310924F0310924E031092490382
:100EB00010924803109251031092500384E00E9454
:100EC000F207DF91CF910C945D046F927F928F9225
:100ED0009F92AF92BF92CF92DF92EF92FF920F93C9
:100EE0001F93CF93DF938FE2C82E82E0D82E02E4C7
:100EF00013E09AE4A92E93E0B92E712C88248394F0
:100F0000912CF60181916F01C82FC295CF70D0E06E
:100F100099A18F70740101C0EE0C8A95EAF7892FB0
:100F20008E2989A38AA16E2C609486218AA30E94AF
:100F3000F406E3E2F2E040E050E020E030E06191CE
:100F4000A62FA295AF70B0E090968C9190E06F7054
:100F500002C0959587956A95E2F780FD08C0C401A7
:100F6000042E02C0880F991F0A94E2F702C080E0A5
:100F700090E0282B392B4F5F5F4F4C305105F9F62D
:100F800089A1682269A28AA1E82AEAA2F8018081DF
:100F900091812817390721F03183208381E001C036
:100FA00080E0782A0E5F1F4FA016B10609F0A9CF86
:100FB000272D44E06AE473E082E493E00E94F307A3
:100FC0000E946904872DDF91CF911F910F91FF90AF
:100FD000EF90DF90CF90BF90AF909F908F907F90D9
:100FE0006F9008950895FF920F931F93CF93DF930F
:100FF000F82E092F162FD72FC42F222349F081E076
:10100000809376020E943126909375028093740239
:10101000809176028823D9F08091740290917502B4
:101020000E944926069798F0EF2DF02FA12FBD2F93
:1010300080E090E04C2F50E08417950734F4219124
:1010400031912D933D930196F7CF10927602DF9167
:10105000CF911F910F91FF900895EF92FF920F9300
:101060001F93CF93DF938B01682F11110AC0442384
:1010700029F0E82FF0E0E259FB4F6491762F862F9C
:1010800075C0212F30E0E82FF0E0442321F0E25931
:10109000FB4FE491F0E046E0049FC0011124CFEF44
:1010A000D0E0BE010E945D304BEA4603C001479F7D
:1010B000900D1124800F911D800F911D982F990F75
:1010C000890FAE01421B530B4E9FD0014F9FB00DB5
:1010D0005E9FB00D11249B2F189FA0011124452F56
:1010E00055278E01041B150B0E9FA0010F9F500D5D
:1010F0001E9F500D11247E01E81AF108E29E800126
:10110000E39E100DF29E100D1124212F3327C21BD8
:10111000D30BCE9F9001CF9F300DDE9F300D112459
:1011200062307105A9F048F46115710569F061300C
:101130007105C9F48B2F752F0DC06430710581F0D6
:1011400058F06630710579F47E2F8B2F932F0DC0E8
:10115000832F7B2F9E2F09C08E2F7B2F952F05C0AD
:101160008E2F732F02C07E2F852F692FDF91CF9195
:101170001F910F91FF90EF90089541E00E942D087C
:10118000089520E030E0869F212D969F200D311D8F
:101190001124C9010895BC018230910508F4089515
:1011A000613E8EE1780748F49B0195E036952795DE
:1011B0009A95E1F748E0420F01C04FEF91E0242FEC
:1011C00030E0290F311D35952795229FF001239F8F
:1011D000F00DF00D11246E177F0718F44FEF420F3A
:1011E00004C02F3F39F091E0920F491740F78FEF7D
:1011F000890F08958FEF0895482F982F46FD9095F9
:10120000E92FEF739F7046FD9F5FE295EF70EE0F41
:10121000F0E0ED5CFD4F2181299F802D212D1124CF
:1012200082958F702295207F822B3081982F930F8B
:10123000892F47FD819580580895E42FF0E0EE0F47
:10124000FF1FEC5CFE4F408134EE439F412D112483
:10125000E72FF0E050E0445E5F4FDA01A21BB109D6
:101260009D01B7FF03C031952195310993E0220F0D
:10127000331F9A95E1F7AF01421B530B9A0157FFB9
:1012800002C020E030E0279F212D1124722F089505
:10129000E42FF0E0EE0FFF1FEC5CFE4F408134EED8
:1012A000439F412D1124E82FF0E050E0445E5F4F52
:1012B000DA01A21BB1099D01B7FF03C03195219549
:1012C000310993E0220F331F9A95E1F7AF01421BDA
:1012D000530B9A0157FF02C020E030E0582F259FA2
:1012E000212D1124822F0895622F0895E42FF0E01C
:1012F000EE0FFF1FEC5CFE4F6081621B0895E42F30
:10130000F0E0EE0FFF1FEC5FFE4F61A9621B089536
:10131000A22F50E0FA01EE0FFF1FEC5FFE4F91A9E4
:10132000905297FD9195440F551FFA01EC5CFE4FCA
:101330003081232F30E02A1B3109290F311D97FD01
:101340003A95620F0895EF920F931F9393E0099FD0
:1013500080011124159507956E2D600F1F910F9137
:10136000EF9008950F93CF93DF93D72FC82F47FDAA
:101370004195E8E3F0E0CF01841B910947FD939587
:10138000889FB001899F700D700D1124229FC001AC
:10139000239F900D900D1124860F971F0E94CB085C
:1013A000682F660F860F682F600F7D2F8C2FDF91BF
:1013B000CF910F9108950F931F93522F10E0F801D2
:1013C000EE0FFF1FEC5FFE4FE1A9F0E0B0979F0129
:1013D0005203D001539FB00D1124000F111FF801CB
:1013E000EC5CFE4F008110E00057110940039001B2
:1013F000419F300D11242A0F3B1F37FF02C0215897
:101400003F4F220F232F221F330B620F1F910F918B
:1014100008950F931F93522F10E0F801EE0FFF1F56
:10142000EC5FFE4FE1A9F0E0B097EE0FFF1F9F01C8
:101430005203D001539FB00D1124000F111FF8016A
:10144000EC5CFE4F008110E000571109000F111FE6
:1014500040039001419F300D11242A0F3B1F37FF9D
:1014600002C021583F4F220F232F221F330B620F40
:101470001F910F9108950F931F9310E0F801EE0F45
:10148000FF1FEC5CFE4F9081905797FD9195000FE8
:10149000111FF801EC5FFE4FE1A9F0E0B097DF010A
:1014A000AA0FBB1F8D010E0F1F1F2003D001219F0C
:1014B000B00D1124E8E3F0E0E91BF10997FDF39585
:1014C0009F01220F331F89010E0F1F1F4003900140
:1014D000419F300D11242A0F3B1F37FF02C02158B6
:1014E0003F4F220F232F221F330B620F1F910F91AB
:1014F00008954095282F429F412D1124842F08954F
:1015000022E8241B08F420E0620F0895EF92FF9276
:101510000F93970195E0099F200D311D11242F3F56
:10152000310519F010F02FEF30E02095382F320FF1
:1015300008F43FEF832F0F91FF90EF900895EF9203
:10154000FF920F93E00EF11CF90137FF03C0F195F4
:10155000E195F10924E0EE0FFF1F2A95E1F7EF3F37
:10156000F10519F014F0EFEFF0E09A0157FF03C016
:1015700031952195310994E0220F331F9A95E1F7B7
:101580002E173F070CF4F901EE0DFF1DEF3FF1059B
:1015900019F010F0EFEFF0E02E2F2095382F320FDA
:1015A00008F43FEF832F0F91FF90EF900895EF9293
:1015B000FF920F93972F093438F4B701601B71091C
:1015C0006F3F710519F010F06FEF70E0485F5F4FEB
:1015D0004131510540F0A901485F5F4F413151054C
:1015E00010F06FEF70E06095482F460F08F44FEF52
:1015F000842F37FF02C02D5F3F4F359527953595D6
:10160000279560915303620F792F0F91FF90EF9010
:101610000895EF92FF920F939701201B31092F3FFE
:10162000310519F010F02FEF30E0322F3095482FB0
:10163000430F08F44FEF842F620F0F91FF90EF904C
:101640000895EF92FF920F939701201B31092F3FCE
:10165000310519F010F02FEF30E02095382F320FC0
:1016600008F43FEF832F0F91FF90EF900895FC0156
:101670009B01009721F477FF2BC080E80895AC010F
:1016800097FF04C044275527481B590BB901640F25
:10169000751F37FD0CC0241B350BC901A5E0880F51
:1016A000991FAA95E1F70E94713080E20CC0CB012E
:1016B00065E0880F991F6A95E1F7BA01621B730B09
:1016C0000E94713080E6861BF7FF03C08195089564
:1016D00080E00895FF920F931F93CF93DF93F62E30
:1016E000172FD82FC901C72FC01BBA010E94370B73
:1016F000982F990F890F7C2F781B719F712D1124C2
:101700006F2D8D2FDF91CF911F910F91FF90089535
:10171000FF920F931F93CF93DF93F62ED72F182F9F
:10172000C901C12FC01BBA010E94370B982F990F16
:10173000890FC81B2C2F219F212D1124822F6F2D43
:101740007D2FDF91CF911F910F91FF900895EF9220
:101750000F931F93CF93DF93D62F172FC82FC90155
:101760000E19070FBA010E94370B702F781B719F5B
:10177000712D11246D2F8C2FDF91CF911F910F911F
:10178000EF900895EF920F931F93CF93DF93D62F8F
:10179000C72F182FC9010E19010FBA010E94370B6C
:1017A000081B202F219F212D1124822F6D2F7C2F8C
:1017B000DF91CF911F910F91EF9008950F93CF93E9
:1017C000DF93D72FC82FC901BA010E94370B682FAA
:1017D000600F7D2F8C2FDF91CF910F910895EF92A5
:1017E0000F93CF93DF93D72FC82FC9010E19BA01DA
:1017F0000E94370B602F681B7D2F8C2FDF91CF91BC
:101800000F91EF90089545E050E06CE170E082E5C3
:1018100093E00C94313145E050E06CE170E082E5FA
:1018200093E00C944F31E2E5F3E085E3808380910F
:10183000EF019091F001A091F10181839283A38344
:101840008FE784830C940B0C80E008950F931F9313
:10185000CF93DF93C82FD62F8A010E94240C9CE0DF
:10186000C99FF0011124EC5FFE4FED0FF11D908137
:101870009F3F29F0F801E80FF11D90838F5FDF9102
:10188000CF911F910F910895E0914102F091420292
:101890000994E0913D02F0913E0209944F925F92CB
:1018A0006F927F928F929F92AF92BF92CF92DF9270
:1018B000EF920F931F93CF93DF932C013B01FC0119
:1018C000C0818BE0C89FC02D1124DBE0DC0FD63334
:1018D00008F0D5E360915603669580915703909187
:1018E00058030E94C108182FCD1708F044C08C2E51
:1018F000912CF401E256FE4F9081F20181818923FF
:10190000C1F1F401EE0FFF1FEC5CFE4FC080D12C43
:10191000F0E7CF1AD108F401EE0FFF1FEC5FFE4F86
:10192000A1A8B12C80E2A81AB108CC9C9001CD9C52
:10193000300D300D1124AA9CC001AB9C900D900D70
:101940001124820F931F0E94CB08082F609153032C
:101950007091540380915503E12E9501A601F30186
:1019600009950E94BD08462F282F672FC4010E94A9
:10197000490CCF5FB9CF81E0D53308F080E0DF912B
:10198000CF911F910F91EF90DF90CF90BF90AF90CC
:101990009F908F907F906F905F904F90089567EA2F
:1019A0007BE00C944E0C62EC7BE00C944E0C63EAF2
:1019B00079E00C944E0C6FEE7BE00C944E0CAF92E1
:1019C000BF92CF92DF92EF92FF920F931F93CF932C
:1019D000DF936C015B01FC01C0818BE0C89FC02DCF
:1019E0001124DBE0DC0FD63308F0D5E36091560319
:1019F000669580915703909158030E94C108182F53
:101A0000CD1778F5EC2EF12CF701E256FE4F9081C0
:101A1000F6018181892319F1F701EE0FFF1FEC5FB9
:101A2000FE4F21A930E020523109F701EE0FFF1FD0
:101A3000EC5CFE4F408150E04057510960915303E8
:101A40007091540380915503012FF50109950E946F
:101A5000BD08462F282F672FC7010E94490CCF5F72
:101A6000CFCF81E0D53308F080E0DF91CF911F9197
:101A70000F91FF90EF90DF90CF90BF90AF900895BF
:101A80006AE67BE00C94DF0C68E87BE00C94DF0CEA
:101A900062EB79E00C94DF0C6EED7BE00C94DF0CD4
:101AA000BF92CF92DF92EF92FF920F931F93CF934B
:101AB000DF938C017B01FC01C0818BE0C89FC02DAE
:101AC0001124DBE0DC0FD63308F0D5E36091560338
:101AD0006695669580915703909158030E94C108BE
:101AE000B82ECD17F0F4CC2ED12CF601E256FE4FD5
:101AF0009081F8018181892391F060915303709165
:101B00005403809155032B2D4C2FF70109950E940A
:101B1000BD08462F282F672FC6010E94490CCF5FB2
:101B2000E0CF81E0D53308F080E0DF91CF911F91C5
:101B30000F91FF90EF90DF90CF90BF9008956DE1EF
:101B400079E00C94500D68E479E00C94500D64E752
:101B500079E00C94500D66E779E00C94500D6FE736
:101B600079E00C94500D68E879E00C94500D7F9268
:101B70008F929F92AF92BF92CF92DF92EF92FF929D
:101B80000F931F93CF93DF936C015B01FC01C08126
:101B90008BE0C89FC02D1124DBE0DC0FD63308F0AA
:101BA000D5E36091560366956695809157039091B1
:101BB00058030E94C108182F80E4810F0E94FC087E
:101BC00090E8F92EF80E812F0E94FC0820E8722E72
:101BD000780ECD1700F58C2E912CF401E256FE4FB5
:101BE0009081F60181818923A1F060915303709166
:101BF000540380915503E12E0C2F272D4F2DF50115
:101C000009950E94BD08462F282F672FC4010E9406
:101C1000490CCF5FDECF81E0D53308F080E0DF9163
:101C2000CF911F910F91FF90EF90DF90CF90BF90D9
:101C3000AF909F908F907F9008956BED79E00C941A
:101C4000B70D69E07AE00C94B70D6BE37AE00C9481
:101C5000B70DAF92BF92CF92DF92EF92FF920F93A8
:101C60001F93CF93DF937C015B01FC01C0818BE06C
:101C7000C89FC02D1124DBE0DC0FD63308F0D5E37C
:101C80002091560330E040E050E06FEF7FEF80E0BE
:101C900090E00E9485308901CD17E8F5CC2ED12C3B
:101CA000F601E256FE4F9081F7018181892389F187
:101CB00090915B03915097FD15C0292F092E000CC0
:101CC000330BF901E55AFC4F8189C813F3CF220F7A
:101CD000331FF901E55AFC4F218D328D2017310752
:101CE00048F701C0980160915603C9010E94C108DC
:101CF000AC01609153037091540380915503F50139
:101D000009950E94BD08462F282F672FC6010E9403
:101D1000490CCF5FC1CF81E0D53308F080E0DF917F
:101D2000CF911F910F91FF90EF90DF90CF90BF90D8
:101D3000AF90089569E77AE00C94290E60E87AE0A4
:101D40000C94290E2F923F924F925F926F927F9246
:101D50008F929F92AF92BF92CF92DF92EF92FF92BB
:101D60000F931F93CF93DF93CDB7DEB729970FB6AD
:101D7000F894DEBF0FBECDBF8B834B013A01DB0170
:101D80001C918BE0189F102D1124BBE0B10FB9837B
:101D9000B63310F0E5E3E983F0915B03FA838981C0
:101DA000181708F07BC0A12EB12CF501E256FE4FAA
:101DB0009081D40111968C91892309F46DC02090F3
:101DC0005303309054034B80512CC501880F991F49
:101DD000FC01EC5CFE4FFD83EC83C501880F991F6D
:101DE0009C012B5C3E4F3F832E83FA814F1608F0F7
:101DF00043C0E42CF12CAC81BD81BC91EB2FF0E011
:101E0000F987E887F701E55AFC4F818128853985F4
:101E1000281B310939872887AE81BF81CC90D12C0E
:101E20008185C81AD108F901EE9F9001EF9F300D0E
:101E3000300D1124CC9CC001CD9C900D900D11242F
:101E4000820F931F0E94CB08082FF701EE0FFF1F90
:101E5000E55AFC4F60915603818D928D0E94C10816
:101E60007C01960148855985B101852DF3010995BD
:101E70001B014394582EB9CF20915503352D329F25
:101E8000312D1124832FB1010E94BD08462F282F28
:101E9000672FC5010E94490C1F5F81CF81E09981A6
:101EA000953308F080E029960FB6F894DEBF0FBE98
:101EB000CDBFDF91CF911F910F91FF90EF90DF90F9
:101EC000CF90BF90AF909F908F907F906F905F90DA
:101ED0004F903F902F90089520915B0331E0231B9A
:101EE00008F420E046E85AE0BC01822F0C94A20ED0
:101EF00046E85AE0BC0180E00C94A20E20915B03FE
:101F000031E0231B08F420E04FE95AE0BC01822FA6
:101F10000C94A20E4FE95AE0BC0180E00C94A20E92
:101F200020915B0331E0231B08F420E047ED5AE0E9
:101F3000BC01822F0C94A20E47ED5AE0BC0180E058
:101F40000C94A20E20915B0331E0231B08F420E0E7
:101F500049E05BE0BC01822F0C94A20E49E05BE0FB
:101F6000BC0180E00C94A20E20915B0331E0231BA6
:101F700008F420E041E25BE0BC01822F0C94A20E49
:101F800041E25BE0BC0180E00C94A20EDF92EF9294
:101F9000FF920F931F93CF93DF938C01DC018C9101
:101FA000CBE08C9FC02D1124DBE0DC0FD63308F092
:101FB000D5E36091530370915403809155030E94BF
:101FC000BD08F62EE72ED82ECD1798F4EC2FF0E0B2
:101FD000DF01A256BE4F8C91D80111969C91982397
:101FE00031F02D2D4F2D6E2DCF010E94490CCF5F6A
:101FF000EBCF81E0D53308F080E0DF91CF911F91E6
:102000000F91FF90EF90DF900895AF92BF92CF9223
:10201000DF92EF92FF920F931F93CF93DF938C0188
:10202000FC01C0818BE0C89FC02D1124DBE0DC0FD8
:10203000D63308F0D5E3E0905403F0905503D090E8
:1020400053036D2D7E2D8F2D0E94BD08C62EB72EF9
:10205000A82E609156036D0D7E2D8F2D0E94BD0818
:10206000F62EE72ED82ECD17B8F48C2F90E0FC0179
:10207000E256FE4F3081F8012181232359F030FFD1
:1020800004C02D2D4F2D6E2D03C02A2D4C2D6B2DF0
:102090000E94490CCF5FE7CF81E0D53308F080E0A4
:1020A000DF91CF911F910F91FF90EF90DF90CF9034
:1020B000BF90AF900895BF92CF92DF92EF92FF92C0
:1020C0000F931F93CF93DF936C01FC01C0818BE0D2
:1020D000C89FC02D1124DBE0DC0FD63308F0D5E318
:1020E00000915403B09055032091560310E4129FC1
:1020F000112D1124CD1718F5EC2EF12CF701E25615
:10210000FE4F9081F60181818923B9F0F701EE0F2E
:10211000FF1FEC5FFE4F81A982958F706091530382
:10212000819F600D1124702F8B2D0E94BD08462FBA
:10213000282F672FC7010E94490CCF5FDBCF81E0BA
:10214000D53308F080E0DF91CF911F910F91FF9080
:10215000EF90DF90CF90BF900895BF92CF92DF9223
:10216000EF92FF920F931F93CF93DF937C01FC01BB
:10217000C0818BE0C89FC02D1124DBE0DC0FD6337B
:1021800008F0D5E3C0905403B09055032091560356
:1021900030E4D32E3D2D329F312D1124D32ECD1777
:1021A00038F50C2F10E0F801E256FE4F9081F70150
:1021B00081818923D9F0F801EE0FFF1FEC5CFE4FFF
:1021C0006081D69EB001112495E0759567959A952A
:1021D000E1F780915303680F7C2D8B2D0E94BD0881
:1021E000462F282F672FC8010E94490CCF5FD7CFF9
:1021F00081E0D53308F080E0DF91CF911F910F91FE
:10220000FF90EF90DF90CF90BF900895DF92EF9214
:10221000FF920F931F93CF93DF938C01DC01CC913E
:102220008BE0C89FC02D1124DBE0DC0FD63308F013
:10223000D5E3E0905303F0905403D09055036091A0
:10224000560366956695669580915703909158035D
:102250000E94C1080E94FC08805887FD8195880F64
:10226000282F3D2D239F212D1124822FB7010E945D
:10227000BD08F62EE72ED82ECD1798F4EC2FF0E0FF
:10228000DF01A256BE4F8C91D80111969C919823E4
:1022900031F02D2D4F2D6E2DCF010E94490CCF5FB7
:1022A000EBCF81E0D53308F080E0DF91CF911F9133
:1022B0000F91FF90EF90DF900895DF92EF92FF92E1
:1022C0000F931F93CF93DF93EC01FC01E256FE4F77
:1022D0009081692381F1D0905403009155031091AE
:1022E0005303E12EF12C0E941831282FC7018C5482
:1022F0009F4F68E671E00E9471308E199F0997FD2B
:10230000039695958795959587952370612F289FBE
:10231000600D11247D2D802F0E94BD08462F282F8F
:10232000672FCE01DF91CF911F910F91FF90EF901A
:10233000DF900C94490CDF91CF911F910F91FF908A
:10234000EF90DF900895CF92DF92FF920F931F934B
:10235000CF93DF938C01FC01C281C1111DC060913C
:10236000560320E1620F08F46FEF809157039091BC
:1023700058030E94C1086AE070E00E945D30892B1A
:1023800059F50E94183165E370E00E947130F80140
:1023900061810E945D1120C0FC018081CBE08C9F97
:1023A000C02D11249BE0F92EFC0EF5E3FF1510F46F
:1023B00085E3F82ED0E0CF2CD12CCC15DD053CF4F4
:1023C000F8016181CE010E945D112196F6CFC1E036
:1023D000F4E3FF1508F4C0E08C2FDF91CF911F913B
:1023E0000F91FF90DF90CF9008951F93CF93DF93CD
:1023F000FC01E256FE4F20816223A9F0EC010E940D
:102400001831182F0E941831612F782F80915503B1
:102410000E94BD08462F282F672FCE01DF91CF9154
:102420001F910C94490CDF91CF911F910895CF9289
:10243000DF92FF920F931F93CF93DF938C01FC01E8
:10244000C281C1111DC06091560320E1620F08F4E2
:102450006FEF80915703909158030E94C10865E087
:1024600070E00E945D30892B59F50E94183165E3B8
:1024700070E00E947130F80161810E94F51120C066
:10248000FC018081CBE08C9FC02D11249BE0F92EB4
:10249000FC0EF5E3FF1510F485E3F82ED0E0CF2C09
:1024A000D12CCC15DD053CF4F8016181CE010E94F0
:1024B000F5112196F6CFC1E0F4E3FF1508F4C0E072
:1024C0008C2FDF91CF911F910F91FF90DF90CF90D4
:1024D0000895E0913F02F09140020994CF92DF927B
:1024E000EF92FF920F931F93CF93DF93CDB7DEB799
:1024F00028970FB6F894DEBF0FBECDBFFB018281D7
:10250000882349F0AE014F5F5F4F608181810E9457
:10251000260CF82E01C0F12CE09077020F2D10E070
:10252000C8018E0D911D099764F188E090E06C015F
:10253000C01AD10AB80168587D4FA60188E792E019
:102540000E942831B80160587D4FA60180E892E0D2
:102550000E942831A601440F551FB801660F771F4E
:1025600060577D4F80E992E00E942831B80168579A
:102570007D4FA60188E892E00E942831EA94E0921B
:10258000770210917702DE01119640E0842F810FCF
:10259000F41609F190E05D91252F30E0BC016958F7
:1025A0007D4FF901EE0FFF1FEC5CFE4F0081FB0138
:1025B0000183220F331FF901EC5FFE4F21A9FB01BC
:1025C0002187518B880F991FFC01E958FD4F128E0E
:1025D000118E4F5FDBCF8093770281E028960FB694
:1025E000F894DEBF0FBECDBFDF91CF911F910F9149
:1025F000FF90EF90DF90CF90089508950C94FD1216
:102600000E94FE120C94FD124F925F926F927F9285
:102610008F929F92AF92BF92CF92DF92EF92FF92F2
:10262000CF936091A0027091A1028091A20290913B
:10263000A3020E9458266B017C010E943D264B019B
:102640005C016093A0027093A1028093A202909318
:10265000A302A0917702E7E7F2E08A2F90E04FEF24
:102660005FEF60E070E04C195D096E097F09A91702
:1026700099F0218D328D2901612C712C441555055D
:102680006605770510F4815004C02C0D3D1D328F76
:10269000218F9F5F3296EBCF809377028091520318
:1026A000982F937021F0C82FC695C69501C0C0E041
:1026B0009091D3019130E9F038F0923009F407C1DC
:1026C000933009F40FC11FC11092D40180925703B7
:1026D00090925803A0925903B0925A0389E2E7E717
:1026E000F2E0ABE5B3E001900D928A95E1F781E06D
:1026F000F6C09091D701C9130CC0837090E040914F
:10270000D80150E021E08417950709F420E0822FDA
:1027100001C081E081708093D6014C2F50E045329A
:10272000510508F0C2C0FA01EA5AFF4F0C94A430D8
:10273000882309F4BAC040E060E080E00E9469129A
:10274000B4C084ED91E00E94C60FB0C084ED91E06A
:102750000E940510ABC084ED91E00E945B10A6C002
:1027600084ED91E00E94AD10A1C084ED91E00E9443
:1027700006119CC084ED91E00E949F0D97C084EDEE
:1027800091E00E94A30D92C084ED91E00E94400D63
:102790008DC084ED91E00E94440D88C084ED91E0ED
:1027A0000E94CF0C83C084ED91E00E94D30C7EC0C8
:1027B00084ED91E00E94A70D79C084ED91E00E9424
:1027C000AB0D74C084ED91E00E94AF0D6FC084ED3D
:1027D00091E00E94B30D6AC084ED91E00E94D70C95
:1027E00065C084ED91E00E94480D60C084ED91E0E9
:1027F0000E944C0D5BC084ED91E00E94DB0C56C042
:1028000084ED91E00E941D0E51C084ED91E00E9484
:10281000210E4CC084ED91E00E94250E47C084ED4E
:1028200091E00E94A31142C084ED91E00E94171232
:102830003DC084ED91E00E949A0E38C084ED91E095
:102840000E949E0E33C084ED91E00E946C0F2EC05A
:1028500084ED91E00E94780F29C084ED91E00E9400
:102860007E0F24C084ED91E00E948A0F1FC084ED8A
:1028700091E00E94900F1AC084ED91E00E949C0F9D
:1028800015C084ED91E00E94A20F10C084ED91E08C
:102890000E94AE0F0BC084ED91E00E94B40F06C001
:1028A00084ED91E00E94C00F01C080E09091D401BE
:1028B0009F5F9093D401811126C082E08093D30161
:1028C0008091D60181111FC0CC2341F01CC0C09360
:1028D000D70183708093D8010E94440C83E08093D9
:1028E000D30111C06091570370915803809159032F
:1028F00090915A030E945826603171058105910517
:1029000010F01092D301CF91FF90EF90DF90CF9015
:10291000BF90AF909F908F907F906F905F904F90FF
:102920000C940013E0913B02F0913C020995109247
:102930005B03E4E7F3E08FEF9FEF8193919323E054
:10294000E438F207D1F710927702E0E9F2E08FEF76
:102950009FEF8193919322E0E03AF207D1F70E9432
:10296000B324811104C00E9453250E94130C0E94BD
:10297000030C809152038C7F11F40C94130C089576
:102980002091520391E09227909352031092D30129
:1029900081110C940B0C089581E00C94C01490915B
:1029A0005203937091F0811102C0946007C0853288
:1029B00010F0906903C0880F880F982B90935203F2
:1029C0001092D30161110C940B0C089561E00C94EA
:1029D000CF14682F90915203969596959F5F9532EC
:1029E00010F4892F01C081E00C94CF1481E00C9485
:1029F000E914682F9091520396959695915011F095
:102A0000892F01C084E20C94CF1481E00C94F91456
:102A100090915203937049F0809353036093540351
:102A20004093550321110C940B0C0895A2E5B3E0DB
:102A30001196EC911197F0E0282F13964C91139773
:102A400012966C91CF0108960C94081581E00C94B5
:102A50001615A2E5B3E01196EC911197F0E0282F3E
:102A600013964C91139712966C91CF0108970C9482
:102A7000081581E00C942915E2E5F3E0628120E17C
:102A8000620F08F46FEF9181282F4381892F90E026
:102A90000C94081581E00C943C15E2E5F3E06281AA
:102AA00020E1621B08F460E09181282F4381892F87
:102AB00090E00C94081581E00C944D15E2E5F3E0EC
:102AC000438120E1420F08F44FEF9181282F62816A
:102AD000892F90E00C94081581E00C945E15E2E5D6
:102AE000F3E0438120E1421B08F440E09181282F6C
:102AF0006281892F90E00C94081581E00C946F1589
:102B00002091560330E1230F08F42FEF2093560352
:102B100081110C940B0C089581E00C948015209188
:102B2000560330E1231B08F420E020935603811163
:102B30000C940B0C089581E00C948F150895FC0102
:102B4000EE0FFF1F8E0F9F1FFC01EC57FC4F6183A0
:102B5000408322830895E4E8F3E094E0E332F90748
:102B600029F08183608342833396F7CF089565E32C
:102B700070E084E893E00C942316882311F0FA01A6
:102B800001C0FB0109940F931F93CF93FB01C281F6
:102B9000CC2309F450C08C010E94FC238272F801FE
:102BA000EF5BFC45E431F10508F048C0E558FF4F04
:102BB0000C94A4300E94CC1440C045E055E166EF6F
:102BC00074E104C046EF54E165E075E10E94BD1573
:102BD00034C049E355E166E275E1F8CF46E255E1DC
:102BE00069E375E1F3CF4BE555E16AE475E1EECFBA
:102BF0004AE455E16BE575E1E9CF4DE755E16CE657
:102C000075E1E4CF4CE655E16DE775E1DFCF4BE9C7
:102C100055E16CE875E1DACF4CE855E16BE975E117
:102C2000D5CF81E005C085E003C08DE001C082E121
:102C30000E94E61402C0C1E001C0C0E08C2FCF9119
:102C40001F910F9108956A9A2EB12B7F3EB1346087
:102C50004FB7F894FC01CB01880F991F680F791FBB
:102C60006E0F7F1FE617F70789F0819198E03EB954
:102C7000000000C087FF2EB9880F000000C000C010
:102C800000C02EB900C09A9591F7ECCF4FBF8FE5E9
:102C900094E00197F1F700C000000895AF92BF9251
:102CA000CF92DF92EF92FF920F931F93CF93DF9318
:102CB0007C015B01C42FD22FFC0182818823F9F0B3
:102CC0004093A6020E9431269093A5028093A4020D
:102CD00080E28C0F883008F06EC0C77081E001C0C0
:102CE000880FCA95EAF7DF91CF911F910F91FF905E
:102CF000EF90DF90CF90BF90AF900C94AF1B80917E
:102D0000A602481335C08091A4029091A5020E94AA
:102D100049266C01B701C5010E94E620C816D906F4
:102D200038F510E21D0FCD17B9F080E28C0F883016
:102D300040F4C77081E001C0880FCA95EAF70E948D
:102D4000B61B183058F581E09D2F977001C0880F91
:102D50009A95EAF70E94AF1B802F0E949C1B1830A7
:102D600050F5D77081E001C0880FDA95EAF70AC004
:102D700080E28C0F8830F8F4C77081E001C0880FC2
:102D8000CA95EAF7DF91CF911F910F91FF90EF90D5
:102D9000DF90CF90BF90AF900C94B61B802FDF9147
:102DA000CF911F910F91FF90EF90DF90CF90BF9048
:102DB000AF900C949C1BDF91CF911F910F91FF90CE
:102DC000EF90DF90CF90BF90AF9008950F939C014C
:102DD000CB01203F4CE5340731F188F4253DFCE57B
:102DE0003F07D9F0263D4CE5340779F1243D3C45B9
:102DF000A9F506E221EE41EE64ED7CE52BC0223F11
:102E0000FCE53F07E1F0A8F0233F3C4539F507E238
:102E100025EE46EE63EF7CE51DC007E225EE45EEAC
:102E200065ED7CE517C006E221EE40EE60EF7CE543
:102E300011C007E225EE44EE61EF7CE50BC006E22F
:102E400021EE42EE62EF7CE505C008E221E045EEAE
:102E500066ED7CE50E944E1680E008C0FC01828190
:102E6000882319F01092A60201C081E00F91089505
:102E7000CF93DF93EC01FB018281882309F41FC10A
:102E8000C230FCE5DF0708F41BC1C6319CE5D90759
:102E900038F09E01275F3C452930310508F010C10C
:102EA0000E94C6249093280480932704C031ECE547
:102EB000DE0709F4C3C008F041C0C8308CE5D8076C
:102EC00009F49AC0F0F4C430ECE5DE0709F487C0D9
:102ED00068F4C2308CE5D80709F477C0C330DC450C
:102EE00009F0E3C080912704826076C0C630ECE52B
:102EF000DE0709F46EC008F07BC08091270488606B
:102F00006BC0CC308CE5D80709F485C068F4CA30B2
:102F1000ECE5DE0709F474C008F079C00E94471E92
:102F200080912704806858C0CE308CE5D80709F41A
:102F300076C008F07FC0809127048BC0C83FECE5C5
:102F4000DE0709F44FC018F5C3318CE5D80709F442
:102F50007DC078F4C131ECE5DE0709F473C0C231FD
:102F6000DC4509F0A2C00E94471E809127048F779C
:102F700033C0C5318CE5D80709F472C008F486C0A7
:102F8000C73FDC4509F091C0809128043EC0CC3F8A
:102F9000FCE5DF0709F45FC058F4CA3F9CE5D90798
:102FA00009F444C008F43FC08091280482602DC019
:102FB000CE3FFCE5DF0709F475C008F45DC0CF3FE4
:102FC000DC4509F072C080E06EC08091270481600A
:102FD00003C08091270480618093270466C080919C
:102FE000270411C0809128048260809328045DC06A
:102FF000809127048062F0CF809127048064ECCF19
:103000008091270488608460E7CF8160EECF809153
:1030100027048E7FE1CF809127048D7FDDCF8091C3
:103020002704877FD9CF8091280418C08091280475
:103030008D7FDBCF809127048F7ECECF80912704B8
:103040008F7DCACF809127048F7BC6CF80912704C4
:10305000877F8B7FC1CF809128048D7F8E7FC5CFE6
:103060008091270482FB222720F991E0922790FB90
:1030700082F990FB83F9B0CF80912804982F909526
:1030800091708E7F892B90FB81F9AFCF0E94471EF4
:103090008091270487FB222720F991E0922790FB5B
:1030A00087F99ACF81E00E9455258091270490915D
:1030B00028040E94D7240E94471E80E001C081E0BE
:1030C000DF91CF910895CF93DF9386319C4541F5F1
:1030D000EB010E94FC23982F8A812091DC01309122
:1030E000DD01882379F09A7A81E009F480E0809309
:1030F000A702911102C069E201C065E3C9010E9403
:103100009C250AC08091A702811102C069E201C01A
:1031100065E3C9010E949E250E944A2480E001C007
:1031200081E0DF91CF9108958091A8029091A9024A
:10313000892B09F18091AA029091AB020E94492645
:103140002091D9013091DA012817390740F4809194
:10315000A8029091A90292600E94030404C0809189
:10316000A8020E949C1B1092AB021092AA0210921D
:10317000A9021092A8020895CF93DF93EC010E9458
:1031800031269093AB028093AA02D093A902C093F8
:10319000A802DF91CF9108958091DB01882321F06F
:1031A0001092DB010C94941881E08093DB01089568
:1031B0001092DB010C9494181F93CF93DF93EC01D2
:1031C000FB011281112309F440C08933910560F499
:1031D0008D32910528F58E319105A0F18832910547
:1031E000F8F08B97E9F02EC087319C4591F0C831FB
:1031F0008CE5D80720F4C436D10591F023C0C8313E
:10320000ECE5DE0749F0C931DC45E1F40E94D8184D
:103210001FC00E94CC181CC081E08093DB0118C045
:103220000E9494188091DB01882391F00E94FC2376
:1032300081110EC0CE010E94BC1882E00E9494242D
:1032400010E006C00E94941803C00E94941811E078
:10325000812FDF91CF911F9108959093B1028093B8
:10326000B0020895E091B002F091B102309721F0E0
:103270000190F081E02D099480E00895E091B00282
:10328000F091B102309721F00280F381E02D099492
:103290000895E091B002F091B102309739F022E048
:1032A000DC012C930480F581E02D09940895209190
:1032B000AE023091AF022817390771F09093AF0238
:1032C0008093AE02E091B002F091B102309721F00C
:1032D0000680F781E02D099408952091AC02309189
:1032E000AD022817390771F09093AD028093AC02BC
:1032F000E091B002F091B102309721F00084F185A5
:10330000E02D0994089585B7806885BF85B78068EA
:1033100085BF089508950C948A190C948B190C9408
:103320008A190C948A190E9483190E948F190C948F
:103330008D1981E008950C9499190E9428260E9405
:1033400001070E94D4260C9491197F928F929F922C
:10335000AF92BF92CF92DF92EF92FF920F931F93A3
:10336000CF93DF93CDB7DEB72A970FB6F894DEBFC1
:103370000FBECDBF0E9465070E949B19811111C02D
:103380008FEF89838A831B820E9431268160782F88
:103390009D838C8349815A816B818D810E94561A4D
:1033A00050C023EBE22E22E0F22E10E000E0812F4D
:1033B0000E94EA064C01F701A080B180A826B92638
:1033C000A114B104A1F18091270381FD0E94F306AD
:1033D000712CCC24C394D12CC5018C219D21892B27
:1033E00001F17E821F8321E0C4018C219D21892B64
:1033F00009F420E028870E9431268160782F9A877F
:1034000089874E815F8168858A850E94561AF701F7
:10341000808191818C259D25918380830F5F04306D
:1034200080F47394CC0CDD1CFCE07F12D5CF1F5FC1
:1034300082E0E80EF11C143009F0B9CF002309F442
:103440009FCF0E9483280E9432199091B20289175F
:10345000C9F00E9432198093B2022A960FB6F894EE
:10346000DEBF0FBECDBFDF91CF911F910F91FF90B7
:10347000EF90DF90CF90BF90AF909F908F907F9014
:103480000C9474042A960FB6F894DEBF0FBECDBF1D
:10349000DF91CF911F910F91FF90EF90DF90CF9030
:1034A000BF90AF909F908F907F900895CF93DF93C0
:1034B000CDB7DEB72B970FB6F894DEBF0FBECDBFEA
:1034C0004F83588769877A878B87DE01119686E05C
:1034D000FD0111928A95E9F785E0FE01379601908A
:1034E0000D928A95E1F749815A816B817C818D81AA
:1034F0009E810E94E9202B960FB6F894DEBF0FBE86
:10350000CDBFDF91CF910895FC01808191810E9410
:10351000BD230895CF93882309F4A4C0C82F82380F
:10352000C1F40E94321981FD9DC069E38091DC01E4
:103530009091DD010E949C250E944A242FEF81EE8C
:1035400094E0215080409040E1F700C0000069E322
:1035500019C0833801F50E94321980FD83C063E5EC
:103560008091DC019091DD010E949C250E944A24FB
:103570002FEF81EE94E0215080409040E1F700C0B1
:10358000000063E58091DC019091DD010E949E25A1
:10359000CF910C944A248438C1F40E94321982FDE0
:1035A00061C067E48091DC019091DD010E949C255F
:1035B0000E944A242FEF81EE94E0215080409040F9
:1035C000E1F700C0000067E4DDCF8CEF8C0F813A9B
:1035D000D0F46C2F8091DC019091DD010E94662572
:1035E000882349F06C2F8091DC019091DD010E94CD
:1035F0009E250E944A246C2F8091DC019091DD0170
:103600000E949C25C5CF80E28C0F883048F4C7709B
:1036100081E001C0880FCA95EAF70E94FF23B8CF66
:10362000EBE5EC0FE33040F4F0E0EF58FD4F808124
:1036300090E0CF910C945719E8E5EC0FE73150F486
:10364000F0E0EE0FFF1FED5BFD4F80819181CF9188
:103650000C946D19C03F30F08C2F0E947827CF91C9
:103660000C946528CF910895882309F464C08238AA
:1036700079F40E94321981FF5EC069E38091DC0118
:103680009091DD010E949C250E944A2469E310C0AC
:103690008338B1F40E94321980FF4DC063E58091F8
:1036A000DC019091DD010E949C250E944A2463E583
:1036B0008091DC019091DD010E949E250C944A24AA
:1036C000843879F40E94321982FF35C067E4809112
:1036D000DC019091DD010E949C250E944A2467E450
:1036E000E7CF9CEF980F913A10F4682FE1CF90E26A
:1036F000980F983050F4877091E001C0990F8A9527
:10370000EAF7892F0E940524D9CF9BE5980F9330C3
:1037100020F480E090E00C94571998E5980F9731C9
:1037200020F480E090E00C946D19803F20F00E941E
:10373000E0270C9465280895CF93C82F0E948A1A19
:10374000C93349F42FEF87EE93E021508040904039
:10375000E1F700C000008C2FCF910C94341B88231C
:1037600021F00E94FF230C944A240895882321F01D
:103770000E9405240C944A240895CF92DF92EF9280
:10378000FF920F931F93CF93DF937C01062FC72FD8
:10379000FC01158112951F70D281D1110E941C2449
:1037A0000E94F523882399F0DD2389F08C2F807FF8
:1037B000803421F080E2800F883048F082E00E945F
:1037C00094240E94F52391E0D82ED92601C0D12C53
:1037D000CC2EC2948FE0C8228C2D90E0FC01E157E2
:1037E000FF4F0C94A4308C2F807FCF70882311F072
:1037F000C295C07FDD2399F0CC2309F487C180E214
:10380000800F883010F0011104C08C2F0E94FF231C
:1038100003C08C2F0E940F240E944A2477C1802F5E
:103820000E94341BCC2309F496C180E2800F8830BB
:1038300010F0011104C08C2F0E94052403C08C2FAE
:103840000E9415240E944A2486C18C2F807FCF704D
:10385000803211F0C295C07F002319F00130C9F009
:1038600025C0DD2371F0112341F0113031F40E94A5
:103870002F248C2B0E9437246EC10E942F248C2B66
:103880000EC0112319F0113009F465C10E944024C3
:103890001FC0DD2339F0163008F05DC18C2F0E9467
:1038A000AF1B59C1153008F056C112C0DD2319F005
:1038B0001123A1F32BC1112359F0093309F037C1AA
:1038C000FFEF27EE83E0F15020408040E1F72DC16B
:1038D0008C2F0E94B61B3FC18C2F869586958370D6
:1038E00019F0813061F037C1DD2321F0802F9C2F4A
:1038F000937002C080E090E00E94571934C1DD232C
:1039000021F0802F9C2F937002C080E090E00E94F5
:103910006D1929C1802FDD2319F00E94782702C07C
:103920000E94E0270E9465281EC18C2F837009F039
:1039300045C0D11114C1402F429546954770440FA0
:10394000440F602F6F70862F90E0A0E0B0E0042E4F
:1039500004C0880F991FAA1FBB1F0A94D2F704FF47
:1039600010C00FE010E020E030E004C0000F111F95
:10397000221F331F4A95D2F7009510952095309558
:1039800003C000E010E09801C695C695C370BC0165
:10399000CD01602B712B822B932BC23049F058F450
:1039A000C13019F00E943A22DAC00E942822D7C002
:1039B0000E944C22D4C00E942622D1C0DD2319F0DF
:1039C0008C2F817001C08695882309F4C8C0402FD0
:1039D000429546954770440F440F602F6F70862FB5
:1039E00090E0A0E0B0E0042E04C0880F991FAA1F49
:1039F000BB1F0A94D2F704FF10C00FE010E020E0D4
:103A000030E004C0000F111F221F331F4A95D2F768
:103A1000009510952095309503C000E010E09801C6
:103A2000C695C695C370BC01CD01602B712B822B4E
:103A3000932BC23049F058F4C13019F00E94FF2294
:103A40008EC00E94ED228BC00E94112388C00E946C
:103A5000602285C0CF70DD2339F08C2F0E94862232
:103A6000802F0E94AF1B7BC0802F0E94B61B8C2F23
:103A70000E94A72274C0023F01F128F4003F41F0E8
:103A8000013FA1F03FC0033FF9F0043F39F13AC0D4
:103A9000DD2341F0153008F05EC08C2F8F710E943D
:103AA000CC2259C0163008F056C0F7CFDD2339F0CC
:103AB0008C2F8F710E9486224EC0DD23C9F38C2F7C
:103AC0008F710E94A72247C0DD2329F08C2F8F71B0
:103AD0000E94712240C00E946C223DC0DD2349F04B
:103AE000CF718C2F0E94862263E08C2F0E947F244E
:103AF00032C081E00E949424123068F182E00E947A
:103B0000942429C0DD2331F0112391F2802F0E94EB
:103B10008A1A21C0112399F2093349F49FEFE7EE85
:103B2000F3E09150E040F040E1F700C00000802F4A
:103B30000E94341B10C04C2F4F70602FC7010E9491
:103B4000DC040E9497210FC04C2F4F70602FC701DB
:103B50000E94DF0408C088EF8C0D843020F40E949E
:103B600032190E947404DD20C9F00E94F12380FD07
:103B700015C0F70112820E94EB230E948622C70122
:103B80000E94EF1D0E94EB23DF91CF911F910F91B7
:103B9000FF90EF90DF90CF900C94A722DF91CF9110
:103BA0001F910F91FF90EF90DF90CF9008950F93AA
:103BB0001F93CF93DF93EC01688179818A810E9402
:103BC000C8238C010E9423230E941422B801CE0135
:103BD0000E94BD1BDF91CF911F910F910895CF934C
:103BE000DF93EC01988189812B813C81232B31F07B
:103BF0008F3F31F481E09F3F19F403C081E001C0A1
:103C000080E080FD19C0CE010E948D0481110CC09E
:103C10000E94F523882381F08A81882369F082E05D
:103C2000DF91CF910C949424CE010E94D71DCE0138
:103C3000DF91CF910C945204DF91CF9108958823A6
:103C400021F00E940F240C944A240895882321F027
:103C50000E9415240C944A2408950E941C240E945A
:103C60002C240E944A240E9496290E94652880E004
:103C700090E00E94571980E090E00C946D198091BB
:103C8000DC019091DD010E94A0250C942D1E0E9464
:103C90000C240C943F1EE92FE295EF704E2F50E05C
:103CA000FA013297EE30F105B0F4E156FF4F0C9473
:103CB000A430803F91F018F4883E68F40EC0843F31
:103CC00051F40BC0883E48F0813F29F406C093FBB5
:103CD000882780F9089580E0089581E008950E9482
:103CE000BD230E944B1E0895CF93DF9300D000D0D8
:103CF0001F92CDB7DEB70F900F900F900F900F90DF
:103D0000DF91CF910895CF93DF9300D000D000D002
:103D1000CDB7DEB726960FB6F894DEBF0FBECDBF87
:103D2000DF91CF9108951F93CF93DF93C091BC0291
:103D300016E08091BD02C81799F0D0E01C9FF001F9
:103D40001D9FF00D1124E254FD4F4081518162818D
:103D50007381848195810E94831E2196C770E9CF6B
:103D6000DF91CF911F9108954091EE025091EF02A3
:103D70006091F0027091F1028091F2029091F30251
:103D80000C94831E0F931F93CF93DF938091F302C4
:103D900082958F7009F05DC08091F002882309F44C
:103DA00058C08091BC021091BD026091EE027091EA
:103DB000EF02C091F102D091F20291E06F3F09F061
:103DC00090E0292F06E0811709F443C0209721F0E5
:103DD0007F3F21F030E003C031E001C0322F90E09E
:103DE00030FD34C0089FF001099FF00D1124DF0160
:103DF000A254BD4F11963C911197371327C03C91A7
:103E0000361324C012963C91129731111FC013969D
:103E10004D915C9114974C1B5D0B483C5105B0F4DF
:103E20008091F3028F7080618093F302ED53FD4F18
:103E300080818F70806180838EEE92E00E94EF1D02
:103E4000DF91CF911F910F910C94931E0196877073
:103E5000BACFDF91CF911F910F9108959F92AF92AA
:103E6000BF92CF92DF92EF92FF920F931F93CF9367
:103E7000DF93CDB7DEB761970FB6F894DEBF0FBE04
:103E8000CDBF8C0185E0F801DE011D9601900D92F9
:103E90008A95E1F7F80140815181E2809091EE022C
:103EA0006091EF022091F1023091F202211531056B
:103EB00031F06F3F31F481E09F3F19F403C081E09E
:103EC00001C080E0F82FF1709F2E80FD2CC1F80119
:103ED000A380B4808EEEC82E82E0D82EF090F0023F
:103EE000F501E21BF30BFF2009F4EBC08091F30214
:103EF000E83CF10508F0A7C0282F207F09F052C048
:103F0000561313C0491311C0FE2CE1100EC08F7060
:103F100080618093F3020E94B41EC6010E94EF1DCF
:103F20008091F302F80185833EC1AB2831F05F3FF9
:103F300031F481E04F3F19F403C081E001C080E01B
:103F400080FD03C081E08E2502C080E090E0F82F64
:103F5000F170FF2E80FF1CC08091BC022091BD0239
:103F600036E0821709F4FDC090E0389FF001399FD8
:103F7000F00D1124E254FD4F6181561306C060819B
:103F8000461303C06281E61203C001968770E9CF31
:103F9000FE2CEE2009F407C18091F302816080932A
:103FA000F30266C0561312C0491310C0E1100EC0D0
:103FB000F8018583C8010E94EF1D86E0F801AEEE8E
:103FC000B2E001900D928A95E1F7C8C04D875E87F7
:103FD0008D859E850E946F1E882379F1EE2069F100
:103FE0002091F302822F82958F7090E0029774F0F7
:103FF0008091EE029091EF0298878F831986BB869D
:10400000AA862C87CE0107960E94EF1D86E0F80154
:10401000AEEEB2E001900D928A95E1F70E94C21EC9
:104020000E94B41E0DC0561729F14D875E878D85FD
:104030009E850E946F1E81112CC0C8010E94EF1D39
:10404000FF24F394B0C0282F207F69F77A2DB98A16
:10405000A88A6E2D89890E94741E8EEE92E00E94BD
:10406000EF1D86E0F60111928A95E9F70E94B41ED1
:10407000F12C99C04913D9CFE110D7CFF80185832E
:10408000C8010E94EF1D86E0F60111928A95E9F7BA
:104090008AC0EE2091F22091F302822F82958F70D8
:1040A00090E002970CF4B2CF8091EE029091EF0273
:1040B0009A8389831B82BD82AC822E83CE010196B6
:1040C000A3CFE83CF10510F5FE2CEE2009F4B5CFA6
:1040D00056130BC0491309C086E0F801AEEEB2E0FA
:1040E00001900D928A95E1F75EC04D875E878D85C0
:1040F0009E850E946F1E811189CF8091F30281609D
:104100008093F302C8010E94EF1D4DC07A2DB98A39
:10411000A88A6E2D89890E94741E86E0F60111928C
:104120008A95E9F71BC0EE2009F487CF4D875E879B
:104130008D859E850E946F1EF82E882309F47DCF01
:1041400086E0F801AEEEB2E001900D928A95E1F7BB
:104150008EEE92E00E94841A0E94C21E0E94B41E3B
:1041600022C04D875E878D859E850E94BD23292FA5
:1041700022952F70223028F49F7039F0811105C0EC
:104180000BC0243028F49F7049F4805E883020F002
:10419000C8010E94EF1D9F2CF92C05C0F8019581E4
:1041A000907F99F7F9CF8F2D61960FB6F894DEBF07
:1041B0000FBECDBFDF91CF911F910F91FF90EF9078
:1041C000DF90CF90BF90AF909F90089588EC90E0E3
:1041D00008951F93CF93DF93CDB7DEB72C970FB61B
:1041E000F894DEBF0FBECDBF4F83588769877A87AB
:1041F0008B879C87CE0107960E942E1F8823D1F0C3
:104200009F8188852A853B85232B31F08F3F31F4B0
:1042100081E09F3F19F403C081E001C080E080FD90
:1042200047C04F81588569857A858B859C850E941A
:10423000831E3EC086E0FE013796DE011196019096
:104240000D928A95E1F7FF81E8856A857B85611586
:10425000710531F0EF3F31F481E0FF3F19F403C005
:1042600081E001C080E080FD23C02091BD0230E0EC
:10427000C9010196877099274091BC0250E08417CC
:104280009507F1F1F983EA837D836C8396E0929F31
:10429000D001939FB00D1124A254BD4FFE01319661
:1042A00001900D929A95E1F78093BD020E94931EB2
:1042B00016E08091BC029091BD02891771F1189FA0
:1042C000C001112482549D4F0E942E1F882329F182
:1042D000E091BC021E9FF0011124E254FD4F408189
:1042E000518162817381848195810E94831E8091B6
:1042F000BC0290E00196877099278093BC02D9CFC9
:104300000E94471E1092BD021092BC02EEEEF2E037
:1043100086E0DF011D928A95E9F72C960FB6F89496
:10432000DEBF0FBECDBFDF91CF911F910895EF92F9
:10433000FF920F931F93CF93DF938C01892B09F486
:104340006CC0F12CEE24E394E8012196F8018491ED
:10435000843740F4843008F051C0813081F08230DD
:1043600019F15BC0853709F444C0A8F19CE7980FA8
:10437000903708F052C08F770E94341B41C00E5F07
:104380001F4FFE01849190E2980F983050F487708F
:10439000FE2D01C0FF0F8A95EAF78F2F0E941F2480
:1043A00014C00E948A1A2DC00E5F1F4FFE01849117
:1043B00090E2980F983060F48770FE2D01C0FF0FD7
:1043C0008A95EAF78F2F0E9425240E944A2419C05B
:1043D0000E94341B16C00E5F1F4FFE01C491CC23F8
:1043E00081F08FE99FE00197F1F700C00000C15014
:1043F000F6CF0E5F1F4FFE01F49003C00E948A1A91
:104400008E018F2D882309F49FCFEFE9FFE03197CC
:10441000F1F700C000008150F5CFDF91CF911F91DF
:104420000F91FF90EF900895089508950C94152230
:104430000C9416220E94182260931603709317039F
:1044400080931803909319030C942D1E0C941A2238
:104450000F931F93009116031091170320911803D7
:1044600030911903602B712B822B932B1F910F918D
:104470000C941A220F931F930091160310911703A7
:104480002091180330911903602371238223932311
:104490001F910F910C941A220F931F9300911603F2
:1044A0001091170320911803309119036027712789
:1044B000822793271F910F910C941A220C94152296
:1044C0000E945E226093120370931303809314037F
:1044D000909315030C942D1E60E070E0CB010C94BA
:1044E00060220F931F9341E050E060E070E08A018A
:1044F0009B0104C0000F111F221F331F8A95D2F7A2
:10450000C901B8011F910F910C9460220F931F9362
:1045100041E050E060E070E004C0440F551F661FAA
:10452000771F8A95D2F78091120390911303A0917F
:104530001403B09115038A019B01082B192B2A2B18
:104540003B2BC901B8011F910F910C9460220F936E
:104550001F9341E050E060E070E004C0440F551F3D
:10456000661F771F8A95D2F7409550956095709594
:104570008091120390911303A0911403B09115033D
:104580008A019B01082319232A233B23C901B8016F
:104590001F910F910C9460220F931F9341E050E004
:1045A00060E070E004C0440F551F661F771F8A95B6
:1045B000D2F78091120390911303A0911403B0914C
:1045C00015038A019B01082719272A273B27C901C0
:1045D000B8011F910F910C9460220F931F930091CB
:1045E0001203109113032091140330911503602BD3
:1045F000712B822B932B1F910F910C9460220F93A0
:104600001F93009112031091130320911403309112
:10461000150360237123822393231F910F910C9420
:1046200060220F931F9300911203109113032091A6
:1046300014033091150360277127822793271F9158
:104640000F910C94602208952CE0929F800D11240C
:10465000E82FE695E695E695877051E001C0550F85
:104660008A95EAF785E0E89FF0011124EC50FD4FB0
:1046700020E030E070E04081CB01022E02C0969530
:1046800087950A94E2F78170819584278523842792
:1046900081932F5F3F4F2530310569F708952CE056
:1046A000929F800D1124682F669566956695982FC8
:1046B000977085E0689FB001112440E050E080E0F1
:1046C000FB01E40FF51FEC50FD4F208130E0092E77
:1046D00002C0369527950A94E2F721703327042EFD
:1046E00001C0220F0A94EAF7822B4F5F5F4F4530DB
:1046F000510531F70895BF92CF92DF92EF92FF926A
:104700000F931F93CF93DF938C01C0901203D0902F
:104710001303E0901403F090150380911603909119
:104720001703A0911803B0911903C82AD92AEA2ABD
:10473000FB2ACFE1D0E0D701C6010C2E04C0B6950C
:10474000A795979587950A94D2F780FD04C0219785
:1047500090F7B12C07C0BC2EB8018C2F0E94FB042F
:104760000197A9F38B2DDF91CF911F910F91FF90AE
:10477000EF90DF90CF90BF900895CF93DF93EC013F
:104780000E947B23BE010E94FB04DF91CF9108951C
:104790001F93CF93DF93EB019091BB02992321F0FC
:1047A000CB010E94BD2313C0882349F0CB010E9496
:1047B0007B23182F682FCE010E94242304C0CB0135
:1047C0000E944F23182FBE01812F0E94FB04DF910E
:1047D000CF911F91089580911A03859585958595B0
:1047E000089580911A038770089590911A03977025
:1047F00081E009F480E00895809126030895909166
:104800002603892B80932603089580959091260393
:10481000892380932603089510922603089590918A
:104820002503892B80932503089580959091250376
:10483000892380932503089510922503089590916C
:104840002403892B80932403089580959091240359
:10485000892380932403089510922403089580915E
:104860001B03089508950C9432240C9433249091E2
:104870001B03981721F080931B030C943524089593
:1048800080911B03882329F010921B0380E00C9475
:1048900035240895E091DC01F091DD01809126033B
:1048A0008083E091DC01F091DD019081809125030E
:1048B000892B8083E091DC01F091DD019081809172
:1048C0002403892B808380911B03882381F0E0914E
:1048D000DC01F091DD019081892B80838091DC01E6
:1048E0009091DD010E945A2581110E9440248091FF
:1048F000DC019091DD010C943E190C94322498E077
:10490000899F90011124262B20931A030E9486224E
:1049100080911A038595859585950C947D24109238
:104920001A0380E00C947D2420911A038095822341
:1049300080931A03982F977079F430E0482F082E4F
:10494000000C550B2417350739F08595859585950D
:104950000E94A7220C948F2408956FEF7FEF80E0D0
:1049600090E00C947D3180E090E00E94493121E09C
:104970008C3E9E4F09F020E0822F089582E090E067
:104980000C94413183E090E00C944131CF9384E06A
:1049900090E00E944131C82F81E290E00E944131B5
:1049A0002C2F30E0A901582BCA01CF910895CF9345
:1049B000C92F682F84E090E00E945F316C2F81E264
:1049C00090E0CF910C945F31AB01BC018FE090E09F
:1049D0000C947131AB01BC0183E190E00C94713116
:1049E00060E070E0CB010C94EA2460E070E0CB0161
:1049F0000E94E4240C94F0246CEE7EEF80E090E0C2
:104A00000E947D3160E082E090E00E945F3160E0D2
:104A100083E090E00E945F3110921603109217031A
:104A2000109218031092190360E084E090E00E9455
:104A30005F3160E081E290E00E945F3160E085E0FC
:104A400090E00E945F3160E086E090E00E945F317C
:104A50006FEF87E090E00E945F3140E050E0BA01E4
:104A600088E090E00E94713160E08DE090E00E946B
:104A70005F3140E050E0BA0188E190E00E9471317E
:104A800060E087E190E00E945F3140E050E0BA01D1
:104A90008CE190E00E94713160E080E290E00E9441
:104AA0005F310C94F5240C94FC24682F8EE090E088
:104AB0000C945F31FC01329697E080E0915029F030
:104AC00021912223D9F38F5FF9CF0895662349F00E
:104AD000FC01329608962191621729F0E817F90730
:104AE000D1F780E0089581E008959C01FC013296A1
:104AF0009FEF80E04191461789F09F3F19F44111E3
:104B000001C0982F8F5F8630A9F79F3F39F0F901D8
:104B1000E90FF11D97FDFA956283089508959C01B0
:104B20002A5F3F4FFC014281461301C01282019669
:104B300082179307B9F708950C9475250C948F2567
:104B4000029626E0FC0111922A95E9F7089508954E
:104B50000C94A7250C94A725CF930E94AA250E9408
:104B600065070E94A825C0E08C2F0E94EA06892BC9
:104B700029F4CF5FC430C1F780E001C081E0CF915C
:104B800008950C94A7250C94C1250E94C3258091FB
:104B90002D04843049F11092280320E488E190E04C
:104BA0000FB6F894A895809360000FBE2093600024
:104BB00080E00E9474040E94C32583B7817F8460D3
:104BC00083BF83B7816083BF7894889583B78E7FD6
:104BD00083BF0FB6F894A895809160008861809398
:104BE0006000109260000FBE08950C94A7250E94EB
:104BF000471E0E9432190E9474040C94F5251F92DE
:104C00000F920FB60F9211248F939F93AF93BF9380
:104C100080912803811113C0809123049091240472
:104C2000A0912504B09126044196A11DB11D809349
:104C3000230490932404A0932504B0932604BF91E9
:104C4000AF919F918F910F900FBE0F901F9018956D
:104C500082E084BD93E095BD9AEF97BD80936E008E
:104C600008952FB7F8948091230490912404A09183
:104C70002504B09126042FBF08952FB7F8946091B2
:104C800023047091240480912504909126042FBF61
:104C900008959C014FB7F8948091230490912404C7
:104CA000A0912504B09126044FBF821B930B089559
:104CB000CF92DF92EF92FF922FB7F894C090230427
:104CC000D0902404E0902504F09026042FBFA70183
:104CD0009601261B370B480B590BCA01B901FF90EF
:104CE000EF90DF90CF90089578941F920F920FB6B7
:104CF0000F9211248F939F93AF93BF9380912304BE
:104D000090912404A0912504B09126040196A11D40
:104D1000B11D8093230490932404A0932504B093A1
:104D20002604BF91AF919F918F910F900FBE0F906E
:104D30001F90189581E08093E00080E28093D80076
:104D40001092C9008FE19EE40197F1F700C00000C6
:104D500087E090EBDC018093360490933704A093B6
:104D60003804B09339049CE088E10FB6F894A89514
:104D7000809360000FBE90936000FFCF0C94AD2431
:104D80000E9465078FE39CE90197F1F700C00000DE
:104D90000E94650780E00E94EA0680FF04C00E942E
:104DA000BE260C949A2608950E94B324811102C055
:104DB0000E9453250E94BE24809327030E94C6248C
:104DC00090932804809327040E94C224682F70E0E7
:104DD00080E090E00E9426226091120370911303FC
:104DE00080911403909115030C945E2280913103FD
:104DF00080FF0BC06091E20185E0689FB001112443
:104E000075956795759567952BC081FF09C0609171
:104E1000E20185E0689FB00111247595679520C077
:104E200082FF07C06091E20185E0689FB001112414
:104E300017C0909130039923D1F06091E10196174A
:104E400088F72091E20185E0289F90011124929F2C
:104E5000A001939F500D112470E0CA010E9471308F
:104E60006038710540F46115710519F406C065E0FC
:104E700070E0862F08958FE7089581E0089580916E
:104E8000310380FF08C06091DF0170E07595679580
:104E90007595679521C081FF06C06091DF0170E0C4
:104EA0007595679519C082FF04C06091DF0170E0BD
:104EB00010C090912F03992399F06091DE0196170D
:104EC000A0F78091DF01899FC001112470E00E944A
:104ED00071306038710540F46115710519F406C030
:104EE00061E070E0862F08958FE7089581E00895CE
:104EF000803F21F40E94F626819504C0813F29F469
:104F00000E94F626809335030895823F21F40E9483
:104F1000F626819504C0833F29F40E94F6268093EB
:104F200034030895893F19F40E943F2705C08A3F42
:104F300031F40E943F2781958093360308958B3F7B
:104F400021F40E943F27819504C08C3F29F40E94E0
:104F50003F27809337030895843F21F480913303E2
:104F6000816017C0853F21F480913303826011C0B6
:104F7000863F21F48091330384600BC0873F21F486
:104F800080913303886005C0883F31F480913303FA
:104F900080618093330308958D3F21F48091310324
:104FA00081600BC08E3F21F480913103826005C087
:104FB0008F3F29F4809131038460809331030895F9
:104FC000803F39F48091350387FF6AC01092350322
:104FD00067C0813F29F4809135031816BCF360C087
:104FE00090913403823F29F497FF5AC01092340302
:104FF00057C0833F19F41916CCF352C09091360371
:10500000893F31F419160CF04BC01092360348C09A
:105010008A3F19F497FF44C0F8CF8B3F39F4809151
:10502000370387FF3DC0109237033AC08C3F29F405
:10503000809137031816BCF333C0843F21F480916C
:1050400033038E7F17C0853F21F4809133038D7F1A
:1050500011C0863F21F4809133038B7F0BC0873FC3
:1050600021F480913303877F05C0883F31F480911C
:1050700033038F7E8093330313C08D3F21F48091DF
:1050800031038E7F0BC08E3F21F4809131038D7FE1
:1050900005C08F3F29F4809131038B7F80933103CA
:1050A00080913403811106C080913503811102C0C3
:1050B0001092300380913603811106C0809137032E
:1050C000811102C010922F0308950E943126209171
:1050D0003403211104C020913503222321F0909341
:1050E0002E0380932D0320913603211104C02091BB
:1050F0003703222321F090932C0380932B0382E328
:1051000093E00C944919EF92FF920F931F93CF9362
:10511000DF9300D000D000D0CDB7DEB786E0E2E369
:10512000F3E0DE01119601900D928A95E1F7E0908F
:105130003403F09035030091360310913703109239
:105140003403109235031092360310923703E110A6
:1051500003C0FF2009F45DC080912D0390912E03C0
:105160000E944926AC0190913003992339F0209197
:10517000E30130E02417350758F04BC020912A0393
:105180008AE0289F900111242417350718F041C0A8
:105190009F3F19F09F5F90933003EE2061F00E94D3
:1051A000F6261E1414F09FEF01C091E0989F902DF9
:1051B000112490933403FF2061F00E94F6261F14FF
:1051C00014F09FEF01C091E0989F902D11249093CF
:1051D0003503309134033323E1F02091350322234A
:1051E000C1F045EB3403C0011124992319F09093C9
:1051F000340303C081E08093340335EB2303C00103
:105200001124992319F09093350303C081E0809312
:105210003503011103C0112309F45DC080912B03F4
:1052200090912C030E944926AC0190912F03992361
:1052300039F02091E00130E02417350758F04BC0D9
:10524000209129038AE0289F900111242417350713
:1052500018F041C09F3F19F09F5F90932F030023E8
:1052600061F00E943F27101614F09FEF01C091E0FB
:10527000989F902D112490933603112361F00E9482
:105280003F27111614F09FEF01C091E0989F902DD9
:10529000112490933703309136033323E1F02091AA
:1052A00037032223C1F045EB3403C00111249923B5
:1052B00019F09093360303C081E08093360335EBF9
:1052C0002303C0011124992319F09093370303C0DD
:1052D00081E0809337038091340381110BC080916A
:1052E0003503811107C080913603811103C080917D
:1052F000370381110E946528EB82FC820D831E8397
:1053000086E0FE013196A2E3B3E001900D928A950A
:10531000E1F726960FB6F894DEBF0FBECDBFDF9142
:10532000CF911F910F91FF90EF900895E2E3F3E08A
:1053300086E0DF011D928A95E9F710923003109202
:105340002F03109231030895809140030895CF9365
:10535000DF9300D01F92CDB7DEB790912D0494302B
:1053600019F589837B836A8382E08093E9008FEF5C
:105370009091E800815095FD06C095ED9A95F1F762
:1053800000008111F5CF8091E80085FF0DC040E05D
:1053900050E063E070E0CE0101960E94BF2B809147
:1053A000E8008E778093E8000F900F900F90DF91C8
:1053B000CF910895BC0184E00C94A729BC0183E03F
:1053C0000C94A72922E02093E9002FEF3091E80008
:1053D000215035FD06C035ED3A95F1F70000211159
:1053E000F5CF2091E80025FF0BC040E050E066E0DB
:1053F00070E00E94BF2B8091E8008E778093E800D8
:105400000895CF93DF9321E02093E9002FEF3091AF
:10541000E800215035FD06C035ED3A95F1F7000062
:105420002111F5CF2091E80025FF14C0EC0140E0E8
:1054300050E068E070E00E94BF2B8091E8008E771A
:105440008093E80088E0FE01A8E3B3E001900D92AC
:105450008A95E1F7DF91CF91089580912C04811115
:1054600009C00E94502D0E94AD2D8091E200846001
:105470008093E200089510922C04089508950895F1
:105480000C94F72542E061EC81E00E94C92C42E2D5
:1054900061EC82E00C94C92C80912F04833009F4D4
:1054A00060C030F4813071F0823009F499C0089501
:1054B0008A3009F485C08B3009F46BC0893009F05B
:1054C000A7C020C080912E04813A09F0A1C080912C
:1054D000E800877F8093E800809132049091330444
:1054E000892B21F468E088E393E003C060E080E06A
:1054F00090E070E00E940A2C8091E8008B77809306
:10550000E800089580912E04813209F081C08091D5
:10551000320490913304029708F07AC08091E80039
:10552000877F8093E8008091E80082FD05C080912C
:105530002D048111F8CF6CC02091F3008091F2000E
:1055400090E0922B029729F48091F1008B7F8130BB
:1055500021F48091F100809340038091E8008B77E3
:1055600053C080912E04813A09F052C080913204D8
:1055700090913304892B09F04BC08091E800877F1C
:105580008093E8008091E80080FFFCCF8091EE01DD
:1055900036C080912E048132D9F5809132049091E9
:1055A0003304892BA9F58091E800877F8093E80078
:1055B0000E94FE2C809130048093EE010C94471ED3
:1055C00080912E04813221F58091E800877F8093BD
:1055D000E8000E94FE2C80913104809341030895DD
:1055E00080912E04813AA1F48091E800877F809316
:1055F000E8008091E80080FFFCCF80914103809318
:10560000F1008091E8008E778093E8000C94FE2CE6
:10561000089584B7877F84BF0FB6F894A8958091CA
:105620006000886180936000109260000FBE90E07F
:1056300080E80FB6F89480936100909361000FBEEC
:105640000E9493190E94502D0E94AD2D8091E2007E
:1056500084608093E20078940E9442300E949D19F9
:1056600084EE91E00E942D1980912D04853069F41B
:105670000E94C52580912B048823B1F30E94AC259C
:10568000882391F30E94A92BEFCF0E94A519ECCF9C
:105690000C944A2B292F332723303105C9F060F4AD
:1056A0002130310581F02230310509F04AC08BE309
:1056B00090E024EB35E049C02132310511F122326E
:1056C000310579F13EC082E190E02FEE35E03DC03A
:1056D00099278130910561F040F08230910559F0B1
:1056E000039779F5EEE6F5E008C0E0EBF5E005C0DC
:1056F000E8E9F5E002C0E4E7F5E0849190E09F017D
:1057000024C06115710541F061307105D1F489E063
:1057100090E02FED35E019C089E090E026EC35E00F
:1057200014C06115710541F06130710551F481E8D3
:1057300090E021E036E009C080E490E022E836E025
:1057400004C080E090E020E030E0FA013183208363
:10575000089580E189BD82E189BD09B400FEFDCFD5
:105760008091D8008F7D8093D8008091E000826086
:105770008093E0008091E00081FDFCCF0895CF92FE
:10578000DF92EF92FF920F931F93CF93DF93EC0181
:105790008B017A010E941D2D811133C0E114F104A7
:1057A00039F0F70180819181081B190BC80FD91FAF
:1057B000C12CD12C0115110519F18091E80085FD4E
:1057C00016C08091E8008E778093E800E114F10420
:1057D00049F0F70180819181C80ED91ED182C08223
:1057E00085E00FC00E941D2D882321F30AC08991F6
:1057F0008093F10001501109FFEFCF1ADF0ADACFD1
:1058000080E0DF91CF911F910F91FF90EF90DF909B
:10581000CF9008952091340430913504261737072E
:1058200048F06115710539F42091E8002E77209336
:10583000E80001C0B901FC0120E06115710579F1B2
:1058400080912D048823F1F18530F1F18091E800F9
:1058500083FD3CC08091E80082FD2EC08091E8006D
:1058600080FFEBCF2091F3008091F20090E0922B2B
:105870006115710551F08830910538F4219120931C
:10588000F100615071090196F3CF21E0089709F00A
:1058900020E08091E8008E778093E800CECF211140
:1058A000CFCF0AC080912D04882361F0853061F04C
:1058B0008091E80083FD0AC08091E80082FFF2CF6A
:1058C00080E0089582E0089583E0089581E00895DE
:1058D00020913404309135042617370748F06115BC
:1058E000710539F42091E8002E772093E80001C07B
:1058F000B901FC0120E06115710591F180912D0441
:10590000882309F440C0853009F43FC08091E80045
:1059100083FD3DC08091E80082FD2FC08091E800AA
:1059200080FFE9CF2091F3008091F20090E0922B6C
:105930006115710559F08830910540F42491209348
:10594000F1003196615071090196F2CF21E008977C
:1059500009F020E08091E8008E778093E800CBCFBB
:105960002111CCCF0AC080912D04882361F08530AD
:1059700061F08091E80083FD0AC08091E80082FF19
:10598000F2CF80E0089582E0089583E0089581E0F9
:105990000895982F973068F59093E900981739F09B
:1059A0007091EC002091ED005091F00003C0242F85
:1059B000762F50E021FD02C09F5FECCF3091EB00CD
:1059C0003E7F3093EB003091ED003D7F3093ED0052
:1059D0003091EB0031603093EB007093EC0020933A
:1059E000ED005093F0002091EE0027FDE5CF80E020
:1059F00008958F708093E90081E0089580912E04CE
:105A000087FF11C08091E80082FD05C080912D04C0
:105A10008111F8CF11C08091E8008B770BC0809185
:105A20002D04882349F08091E80080FFF8CF809111
:105A3000E8008E778093E80008952091E40030918B
:105A4000E50095E64091EC00842F817040FF23C073
:105A50008091E80080FD1DC080912D04882399F07D
:105A6000853099F08091EB0085FD11C04091E400F4
:105A70005091E5002417350729F3915011F09A0150
:105A8000E1CF84E0089582E0089583E0089581E005
:105A9000089580E008954091E80042FFDDCF089529
:105AA0000E94BE2D0E94C62DE0EEF0E08081816054
:105AB0008083E8EDF0E080818F77808319BCA7EDCB
:105AC000B0E08C918E7F8C9380818F7E808310924A
:105AD0002C0408950F931F93CF93DF930E94BE2D44
