:020000040800F2
:1000000000040020590300085B0300085B0300089C
:100010005B0300085B0300085B0300085B03000848
:100020005B0300085B0300085B030008A9AB000842
:100030005B0300085B0300085B0300085B03000828
:100040005B0300085B0300085B0300085B03000818
:100050005B0300085B030008FDB700083DB800081B
:1000600081B80008C5B8000809B90008BDC000087B
:10007000D1C00008E5C00008F9C000080DC10008A3
:1000800021C1000835C100085B0300085B030008BC
:100090005B0300085B0300085B0300084DB9000820
:1000A00051BB000865BB000869BB00086DBB0008B8
:1000B00049C60008B9CA0008CDCA00080DC3000827
:1000C00015C400085B0300085B0300085B0300081D
:1000D0005B0300085B0300085B0300085B03000888
:1000E00035BA00085B0300085B0300085B030008E7
:1000F0009DC800085B0300085B0300085B03000861
:100100005B0300085B0300085B0300085B03000857
:100110005B0300085B03000875C8000889C8000875
:1001200049C100085DC1000871C1000885C100080F
:1001300099C100085B0300085B0300085B0300082B
:100140005B0300085B0300085B0300085B03000817
:100150005B0300085B0300085B0300085B03000807
:100160005B0300085B0300085B03000819CB000871
:100170005B0300085B0300085B0300085B030008E7
:100180005B0300085B0300085B0300085B030008D7
:100190005B0300085B0300085B0300085B030008C7
:0C01A00041D1000819020008F10100081C
:1001B0000348044B834202D0034B03B118477047F6
:1001C0006015002060150020000000000548064969
:1001D0000B1AD90F01EBA301491002D0034B03B155
:1001E00018477047601500206015002000000000CF
:1001F00010B5064C237843B9FFF7DAFF044B13B16F
:100200000448AFF300800123237010BD6015002067
:100210000000000034E9000808B5044B1BB1044994
:100220000448AFF30080BDE80840CFE700000000BD
:100230006415002034E9000872B6394880F3088854
:10024000384880F3098838484EF60851CEF200014C
:10025000086040F20000CCF200004EF63471CEF29D
:1002600000010860BFF34F8FBFF36F8F40F20000B3
:10027000C0F2F0004EF68851CEF200010860BFF3E4
:100280004F8FBFF36F8F4FF00000E1EE100A4EF674
:100290003C71CEF200010860062080F31488BFF3A1
:1002A0006F8F0AF025F909F099FE4FF055301F497C
:1002B0001B4A91423CBF41F8040BFAE71C49194A1A
:1002C00091423CBF41F8040BFAE71A491A4A1B4B0A
:1002D0009A423EBF51F8040B42F8040BF8E70020A5
:1002E0001749184A91423CBF41F8040BFAE70AF05B
:1002F00003F90AF0FEF8144C144DAC4203DA54F83A
:10030000041B8847F9E709F077FE114C114DAC4208
:1003100003DA54F8041B8847F9E70AF0EBB8000049
:1003200000040020000C0020000000080000002055
:100330000004002034E90008000C002060150020B3
:1003400060150020A8270020A0010008A8010008CF
:10035000A8010008AC0100086EE700F000F8FEE715
:100360002DE9F04F2DED108AC1F80CD0C3689D46E1
:10037000BDEC108ABDE8F08F002383F31188284676
:10038000A04700200AF048FB0AF0DEFA00DFFEE793
:10039000F8B52DED028B57EC106B55EC114B00F0BE
:1003A000C7F8614BB0EE408AF0EE608A93F90030F6
:1003B00001332AD022462B462046294601F084FCF0
:1003C00018BB32463B463046394601F07DFC0028DA
:1003D00044D1002200233046394601F043FCD8B115
:1003E000002200232046294601F03CFC00283DD194
:1003F00045EC104B00F0DEFE38B1204629460022C5
:10040000002301F039FC00285BD1B0EE480AF0EE81
:10041000680ABDEC028BF8BDB0EE480AF0EE680A3F
:1004200000F0C8FE58B30022002351EC180B01F075
:1004300019FC0028E9D047EC106B00F0BBFE002847
:10044000E3D045EC104B00F0B5FE0028DDD001F004
:1004500023FE222303609FED2C8BD6E720462946FE
:100460000022002301F0FEFB0028CED09FED288B58
:10047000B0EE480AF0EE680ABDEC028BF8BD47EC1E
:10048000106B00F097FE0028CDD045EC104B00F02B
:1004900091FE0028C7D053EC182B18EE100A19460D
:1004A00001F012FC18BB01F0F7FD222303600022CB
:1004B00000233046394601F0DFFB48B99FED168B2B
:1004C000A3E701F0E9FD212303609FED158B9CE775
:1004D00045EC104B00F080FE22462B4651EC100BF1
:1004E00001F0C0FB0028E9D19FED0D8B8DE701F0F5
:1004F000D3FD00220023212101601046194601F09E
:1005000073FA41EC180B80E70000000000000000C7
:10051000000000000000F03F000000000000F07F3D
:10052000000000000000F0FF000C002000000000B0
:100530002DE9F04F51EC110B21F0004555EA000375
:1005400093B03DD059EC108B694B29F000449C428C
:100550004E4610EE10AA2CDC0F4611EE10CA36D013
:100560009D4226DC624B9D4220D0002ECDE9000149
:1005700038DB4FF0000BBCF1000F4ED15C4B9D42BD
:1005800000F094805B4B9D4200F0A180B7F1804F5A
:1005900000F09E84584B9F423FD1002E3DDB49EC3A
:1005A000108B13B0BDE8F04F00F02EBDBCF1000F72
:1005B000DBD004F1404404F5801454EA0A030BD163
:1005C0004C49002041EC100B13B0BDE8F08FB8F19E
:1005D000000F01D1A542C5DD484813B0BDE8F04F7A
:1005E00000F0F2BD464B9D4277DCA3F154739D426F
:1005F0000EDD2B15A3F2FF33142B40F37184C3F1EE
:1006000034032CFA03F202FA03F3634500F0B784D3
:100610004FF0000BBCF1000FB4D049EC108B00F090
:10062000BFFD51EC100BBAF1000F22D124B1314BB8
:1006300026F040429A421CD1002F05DA02460B46B2
:1006400000202C4901F0D0F9002EBBDA04F140441F
:1006500004F5801454EA0B0340F0648402460B4610
:100660001046194600F0DEFE02460B4601F0BCF9CA
:10067000A8E7F30F03F1FF3A5BEA0A0330D0214BFE
:100680009D4243DD03F104739D4240F3AF831E4B53
:100690009C4240F33B83002F40F33B8312A3D3E9FA
:1006A00000231046194601F075F88BE704F140432A
:1006B00003F5801353EA0A0382D0134B9C4240F3A4
:1006C0005383002FC0F22583DDE900017AE7002F74
:1006D000C0F2F6834046494674E74FF0020B4AE702
:1006E00042464B46BCE700BF9C7500883CE4377E21
:1006F0000000F07F0000F03F0000E03F28E9000824
:10070000FFFF3F430000E041FFFFEF3FD24B33408C
:10071000002B40F0D3830022D04B01F03BF86FF068
:1007200034060C462315CE4AC4F31304A3F2FF3358
:1007300044F07F559E1994420D9645F4401540F3C0
:10074000B083C84B9C4240F3F6839FEDAD7B8DEDAB
:10075000087B8DED107B9FEDAC7B8DED067B01362C
:100760000D96A5F580154FF00008DDE90623294612
:10077000064600F057FEDDE90623CDE90A013046C2
:10078000294600F051FE02460B460020B64901F012
:100790002BF903460C46CDE90E3402460B46DDE943
:1007A0000A0100F0F7FF6B1043F0005303F500233C
:1007B0000A462F46014603EB08050023CDE9021245
:1007C0000293DDE902890024CDE904122B4622467A
:1007D0004046494600F0DEFF02460B46DDE90A01CD
:1007E00000F020FEDDE90623CDE90A012046294676
:1007F00000F018FE02460B463046394600F012FE65
:1008000042464B4600F0C6FF02460B46DDE90A01B0
:1008100000F008FEDDE90E2300F0BCFFDDE9044531
:10082000CDE9060122462B462046294600F0B2FFBC
:1008300077A3D3E9002304460D4600F0ABFF76A36F
:10084000D3E9002300F0F0FD22462B4600F0A2FF82
:1008500073A3D3E9002300F0E7FD22462B4600F006
:1008600099FF71A3D3E9002300F0DEFD22462B4659
:1008700000F090FF6EA3D3E9002300F0D5FD2246DF
:100880002B4600F087FF6CA3D3E9002300F0CCFDDA
:10089000224606460F462B462046294600F07AFFA0
:1008A00002460B463046394600F074FF4246044685
:1008B0000D464B46DDE9040100F0B6FDDDE90623F7
:1008C00000F068FF22462B4600F0AEFD4246064689
:1008D0000F464B464046494600F05CFF0022634B02
:1008E000CDE90A0100F0A0FD32463B4600F09CFD38
:1008F00002980D46044622462B464046494600F0E3
:1009000049FF002280468946584B2046294600F080
:1009100089FDDDE90A2300F085FD02460B463046DD
:10092000394600F07FFDDDE9042300F033FF224665
:1009300006460F462B46DDE9060100F02BFF024676
:100940000B463046394600F06FFD06460F4602461C
:100950000B464046494600F067FD029838A3D3E9AC
:10096000002304460D4600F015FF4246CDE9040180
:100970004B462046294600F055FD02460B463046C0
:10098000394600F04FFD30A3D3E9002300F002FF09
:100990002FA3D3E9002306460F462046294600F040
:1009A000F9FE02460B463046394600F03DFDDDE9D2
:1009B000102300F039FD04460D980D4600F080FE2E
:1009C000224606460F462B46DDE9040100F02CFDC9
:1009D000DDE9082300F028FD32463B4600F024FD07
:1009E000029832463B468046894600F01BFDDDE911
:1009F000082300F017FDDDE9042339E0AFF30080A0
:100A00000000000000000000000000000000F03FB7
:100A1000EF4E454A287ECA3F65DBC9934A86CD3FE3
:100A200001411DA96074D13F4D268F515555D53FC9
:100A3000FFAB6FDBB66DDB3F033333333333E33F61
:100A4000000000E009C7EE3FFD033ADC09C7EE3FB6
:100A5000F5015B14E02F3EBE0000F07F0000404334
:100A60008E98030079B60B000000F03F00000840AC
:100A700000F0D8FC0B4602462946204600F0D2FC86
:100A80000BF1FF3353EA0A03CDE9020140F067811D
:100A90009FEDB97B8DED047BDDE900230026104638
:100AA000194632461F4600F0BDFC42464B4600F058
:100AB00071FEDDE9002382468B46DDE9020100F08C
:100AC00069FE02460B465046594600F0ADFC3246E0
:100AD0008B4682463B4640464946CDE900AB00F096
:100AE00059FE0B460246804689465046594600F05C
:100AF0009BFCB94B994204460D468B4640F30C8152
:100B000001F13F4303F5E003034340F0FD819CA363
:100B1000D3E90023DDE9000100F086FC42460646E9
:100B20000F464B462046294600F07CFC02460B4609
:100B30003046394601F0BEF8002840F0E581CBF39D
:100B40000A534FF48012A3F2FE3342FA03F35B44DC
:100B5000C3F30A52A14DA2F2FF321541C3F31304AD
:100B600023EA05010020C2F1140A44F48014BBF109
:100B7000000F02460B4644FA0AFA40464946B8BFFF
:100B8000CAF1000A00F04EFC804689464246DDE983
:100B900000014B4600F048FC4FEA0A5B0D4600247A
:100BA00079A3D3E900232046294600F0F3FD42460D
:100BB00006460F464B462046294600F033FC0246C7
:100BC0000B46DDE9000100F02DFC71A3D3E9002301
:100BD00000F0E0FD70A3D3E900238046894620465B
:100BE000294600F0D7FD02460B464046494600F034
:100BF0001BFC8046894602460B463046394600F0CB
:100C000013FC32463B4604460D4600F00BFC024600
:100C10000B464046494600F005FC22468046894680
:100C20002B462046294600F0B5FD5DA3D3E90023FD
:100C300006460F4600F0AEFD5BA3D3E9002300F0AB
:100C4000F1FB32463B4600F0A5FD59A3D3E9002352
:100C500000F0EAFB32463B4600F09CFD56A3D3E988
:100C6000002300F0DFFB32463B4600F093FD54A327
:100C7000D3E9002300F0D8FB32463B4600F08AFD62
:100C800002460B462046294600F0CCFB06460F469E
:100C900002460B462046294600F07CFD0022CDE9A5
:100CA00000014FF080433046394600F0BBFB02465E
:100CB0000B46DDE9000100F097FE424606460F466E
:100CC0004B462046294600F065FD42464B4600F063
:100CD000ABFB02460B463046394600F0A3FB2246EA
:100CE0002B4600F09FFB02460B4600203C4900F0DB
:100CF00099FB8B44BBF5801F02460B46C0F237813F
:100D00005946DDE9042300F045FD5BE4002FFFF6C2
:100D1000C5AC0020002155E4DFF8CCC021F0004331
:100D2000634540F3EB802F4B0B4403430AD142460B
:100D30004B4600F077FBDDE9002300F0B1FF00280F
:100D40003FF4FDAEDDE904011FA3D3E9002300F069
:100D500021FD1DA3D3E9002300F01CFD32E49FED2B
:100D60001C7B8DED047B97E6002FD2DADDE90034A1
:100D7000184604F1004125E4000000000000F0BF27
:100D8000FE822B654715973C00000000432EE63F8E
:100D9000EF39FAFE422EE63F396CA80C615C20BEAA
:100DA000D0A4BE726937663EF16BD2C541BDBB3E71
:100DB0002CDE25AF6A56113F93BDBE166CC1663F4F
:100DC0003E5555555555C53F59F3F8C21F6EA501FF
:100DD000000000000000F03FFFFF8F40FFFF0F000A
:100DE0000000F03F00346F3FFFCB9040824B9C42AD
:100DF0008CDD824B9C423FF74EAC00227F4B00F0D3
:100E000011FB69A3D3E9002304460D4600F0C2FCA0
:100E100067A3D3E9002306460F462046294600F083
:100E2000B9FC002280468946754B2046294600F0D1
:100E3000B1FC02460B4660A1D1E9000100F0F2FAD4
:100E400022462B4600F0A6FC02460B4600206D49C8
:100E500000F0E8FA2246CDE902012B462046294659
:100E600000F098FC02460B46DDE9020100F092FC1E
:100E700053A3D3E9002300F08DFC02460B46404605
:100E8000494600F0CFFA02460B4604460D4630466E
:100E9000394600F0C9FA00208046894632463B4672
:100EA000E6E59FED497B8DED087B8DED107B9FED99
:100EB000487B4FF000088DED067B56E4002631E4B8
:100EC00042464B4600204D4900F08EFDFFF77ABBAD
:100ED00042464B464046494600F05CFCFFF772BB79
:100EE000BCF1000F36D1C3F1140345FA03F202FA44
:100EF00003F3AB424DD0E346FFF744BB414A934274
:100F00004DDCB346B2464AE6DDE9040132A3D3E93B
:100F1000002300F03FFC30A3D3E9002300F03AFCAB
:100F2000FFF750BBBBF1010F7FF44CAB01F1004365
:100F30001946FFF747BB9FED2A7B8DED087B9FEDA0
:100F40002A7B8DED107B9FED2A7B4FF480288DED61
:100F5000067B0AE449EC108B00F022F951EC100BEF
:100F6000BAF1000F7FF4BCABD346FFF75FBB50462E
:100F700043EC102B00F0C0F951EC100BC1E602F06D
:100F80000102C2F1020BBCF1000F3FF4FBAAFFF714
:100F900044BB02F00102C2F1020BFFF7F3BA1B15CA
:100FA000CFE500BFAFF30080000000604715F73FBA
:100FB00044DF5DF80BAE543E555555555555D53F5C
:100FC000FE822B654715F73F00000000000000007F
:100FD000000000000000F03F9C7500883CE4377E74
:100FE0000000004003B8E23F06D0CF43EBFD4C3E8B
:100FF000000000000000F83FFEFFEF3F0000F03F60
:101000000000D03F0000E03F2DE9F041634955EC7E
:10101000104BA94300F09F80002D2B4610EE102AA4
:1010200052DD5FEA255E00F0B180C3F31303AEF238
:10103000FF3E43F48013D10F1EF0010F01EB430379
:101040004FEA420403D0E40F04EB430394004FF053
:10105000000C4FEA6E0E664616254FF40012B118CA
:10106000994202DC5B1A8E1894445B00013D03EB4D
:10107000D4734FEA52024FEA4404F0D12F462020A5
:101080004FF0004209E041D0E10F01384FEA52022F
:1010900001EB43034FEA440441D0B34202EB0501A4
:1010A000F1DD002901EB020509DBB0469B1BA142E3
:1010B00088BF03F1FF33641A17444646E4E7002D66
:1010C000F3DB06F10108F1E725F00041214339D0B7
:1010D000002D50D1D40A153B52052146002CF9D0E1
:1010E000E50256D4002000E028464900CC0200F179
:1010F0000105F9D50C461146AA40C5F1200521FA93
:1011000005F5A3EB000E45EA04038EE7A142BBD828
:10111000002901EB0205D2DB98460023CBE72343ED
:1011200012D178084FEA6C0101F17F511CF0010FD8
:1011300001F5001118BF40F0004001EB0E530246CC
:1011400043EC102BBDE8F0817B1C16BF781C0CF122
:10115000010C4008E6E710EE102A2B4610EE100AAC
:10116000294600F017FB22462B4600F05DF941ECC2
:10117000100BBDE8F0812046294600F053F90246E5
:101180000B4600F031FC41EC100BDBE729467346BF
:10119000A8E7114620254FF0FF30B0E70000F07FB0
:1011A00051EC100B10EE102A21F0004343EC102BF1
:1011B000704700BF10EE903A43F0004000F58010F9
:1011C000C00F7047000000009FED010B704700BF8B
:1011D000000000000000F87FF0B553EC102BC3F3C3
:1011E0000A56A6F2FF30132883B019464FEAD3748B
:1011F00010EE105A37DC00282DDB3D4E064103EA85
:10120000060717432BD0760833401D430CD04FF40C
:101210008023132821EA060643FA00F141EA060179
:101220000CBF4FF000450025324800EBC4042A46AD
:10123000D4E900450B462046294600F0F5F8CDE9F3
:10124000000122462B46DDE9000100F0EBF841ECFD
:10125000100B03B0F0BD23F00040104322D143EC4B
:10126000102B03B0F0BD332809DDB0F5806FF6D147
:1012700010EE100A00F0D8F841EC100BF1E7A6F2DE
:1012800013464FF0FF30F0400242E8D040080242DF
:10129000CAD04FF0804325EA000043FA06F640EA40
:1012A0000605C1E7C3F31300104345420543114847
:1012B00000EBC400D0E90067590C2D0B490405F47C
:1012C000002545EA01033046394600F0ADF8CDE986
:1012D00000013B463246DDE9000100F0A3F821F0B1
:1012E000004343EAC47141EC100B03B0F0BD00BFF2
:1012F000FFFF0F0088D1000838B553EC102BC3F363
:101300000A511C46054681BB10EE101A23F000441A
:10131000214329D0194600223D4B3E4C10EE100AC5
:1013200000F038FAA54202460B4616DB0C46C1F324
:101330000A513639294440F2FE70814221DC0029ED
:1013400047DC11F1350F34DA4CF250318D4218DCA4
:10135000002B27A1D1E9000144DB25A3D3E9002319
:1013600000F018FA41EC100B38BD40F2FF708142DA
:10137000E0D110EE100A194600F056F841EC100BBF
:1013800038BD002B1CA1D1E9000107DB1AA3D3E96A
:10139000002300F0FFF941EC100B38BD18A1D1E992
:1013A000000115A3D3E9002300F0F4F941EC100B80
:1013B000F3E724F0FF4424F4E004363144EA015317
:1013C000104619460022144B00F0E4F941EC100BD2
:1013D00038BD24F0FF4424F4E00444EA015343EC14
:1013E000102B38BD08A1D1E90001B6E7AFF30080AA
:1013F00059F3F8C21F6EA5019C7500883CE4377E46
:101400009C7500883CE437FE59F3F8C21F6EA58135
:1014100000005043B03CFFFF0000903C81F00041D1
:1014200002E000BF83F0004330B54FEA41044FEAC9
:10143000430594EA050F08BF90EA020F1FBF54EA64
:10144000000C55EA020C7FEA645C7FEA655C00F000
:10145000E2804FEA5454D4EB5555B8BF6D420CDDD1
:101460002C4480EA020281EA030382EA000083EA54
:10147000010180EA020281EA0303362D88BF30BDF4
:1014800011F0004F4FEA01314FF4801C4CEA11314A
:1014900002D0404261EB410113F0004F4FEA0333A9
:1014A0004CEA133302D0524263EB430394EA050F34
:1014B00000F0A780A4F10104D5F1200E0DDB02FAA3
:1014C0000EFC22FA05F2801841F1000103FA0EF237
:1014D000801843FA05F359410EE0A5F120050EF1FD
:1014E000200E012A03FA0EFC28BF4CF0020C43FA2E
:1014F00005F3C01851EBE37101F0004507D54FF03B
:10150000000EDCF1000C7EEB00006EEB0101B1F58A
:10151000801F1BD3B1F5001F0CD349085FEA3000D0
:101520004FEA3C0C04F101044FEA445212F5800FDB
:1015300080F09A80BCF1004F08BF5FEA500C50F178
:10154000000041EB045141EA050130BD5FEA4C0C5B
:10155000404141EB0101013C28BFB1F5801FE9D2B8
:1015600091F0000F04BF01460020B1FA81F308BFDB
:101570002033A3F10B03B3F120020CDA0C3208DDA7
:1015800002F1140CC2F10C0201FA0CF021FA02F182
:101590000CE002F11402D8BFC2F1200C01FA02F1F2
:1015A00020FA0CFCDCBF41EA0C019040E41AA2BF17
:1015B00001EB0451294330BD6FEA04041F3C1CDADF
:1015C0000C340EDC04F11404C4F1200220FA04F0FF
:1015D00001FA02F340EA030021FA04F345EA0301A9
:1015E00030BDC4F10C04C4F1200220FA02F001FA6B
:1015F00004F340EA0300294630BD21FA04F02946ED
:1016000030BD94F0000F83F4801306BF81F4801185
:101610000134013D4EE77FEA645C18BF7FEA655CF8
:1016200029D094EA050F08BF90EA020F05D054EACA
:10163000000C04BF1946104630BD91EA030F1EBFCF
:101640000021002030BD5FEA545C05D140004941D3
:1016500028BF41F0004130BD14F580043CBF01F5C6
:10166000801130BD01F0004545F0FE4141F47001AC
:101670004FF0000030BD7FEA645C1ABF1946104687
:101680007FEA655C1CBF0B46024650EA013406BF88
:1016900052EA033591EA030F41F4002130BD00BF47
:1016A00090F0000F04BF0021704730B54FF4806404
:1016B00004F132044FF000054FF0000150E700BF85
:1016C00090F0000F04BF0021704730B54FF48064E4
:1016D00004F1320410F0004548BF40424FF00001D1
:1016E0003EE700BF42004FEAE2014FEA31014FEA14
:1016F00002701FBF12F07F4393F07F4F81F0605163
:10170000704732F07F4208BF704793F07F4F04BFAD
:1017100041F40021704730B54FF4607401F000458A
:1017200021F000411CE700BF50EA010208BF7047EA
:1017300030B54FF000050AE050EA010208BF7047DB
:1017400030B511F0004502D5404261EB41014FF444
:10175000806404F132045FEA915C3FF4D8AE4FF04C
:1017600003025FEADC0C18BF03325FEADC0C18BF2F
:10177000033202EBDC02C2F1200300FA03FC20FA80
:1017800002F001FA03FE40EA0E0021FA02F11444CD
:10179000BDE600BF70B54FF0FF0C4CF4E06C1CEAE6
:1017A00011541DBF1CEA135594EA0C0F95EA0C0F57
:1017B00000F0DEF82C4481EA030621EA4C5123EACA
:1017C0004C5350EA013518BF52EA033541F48011F9
:1017D00043F4801338D0A0FB02CE4FF00005E1FBAC
:1017E00002E506F00042E0FB03E54FF00006E1FBF6
:1017F00003569CF0000F18BF4EF0010EA4F1FF0439
:10180000B6F5007F64F5407404D25FEA4E0E6D4178
:1018100046EB060642EAC62141EA55514FEAC52089
:1018200040EA5E504FEACE2EB4F1FD0C88BFBCF505
:10183000E06F1ED8BEF1004F08BF5FEA500E50F1B6
:10184000000041EB045170BD06F0004646EA01017C
:1018500040EA020081EA0301B4EB5C04C2BFD4EBAE
:101860000C0541EA045170BD41F480114FF0000EA7
:10187000013C00F3AB8014F1360FDEBF002001F015
:10188000004170BDC4F10004203C35DA0C341BDC8F
:1018900004F11404C4F1200500FA05F320FA04F061
:1018A00001FA05F240EA020001F0004221F0004195
:1018B00010EBD37021FA04F642EB06015EEA430E08
:1018C00008BF20EAD37070BDC4F10C04C4F1200538
:1018D00000FA04F320FA05F001FA04F240EA0200EB
:1018E00001F0004110EBD37041F100015EEA430EBC
:1018F00008BF20EAD37070BDC4F1200500FA05F2DC
:101900004EEA020E20FA04F301FA05F243EA02035A
:1019100021FA04F001F0004121FA04F220EA020069
:1019200000EBD3705EEA430E08BF20EAD37070BDAF
:1019300094F0000F0FD101F00046400041EB01018F
:1019400011F4801F08BF013CF7D041EA060195F071
:10195000000F18BF704703F00046520043EB03032B
:1019600013F4801F08BF013DF7D043EA0603704718
:1019700094EA0C0F0CEA135518BF95EA0C0F0CD023
:1019800050EA410618BF52EA4306D1D181EA030169
:1019900001F000414FF0000070BD50EA410606BF63
:1019A0001046194652EA430619D094EA0C0F02D1A8
:1019B00050EA013613D195EA0C0F05D152EA0336ED
:1019C0001CBF104619460AD181EA030101F000410B
:1019D00041F0FE4141F470014FF0000070BD41F054
:1019E000FE4141F4780170BD70B54FF0FF0C4CF42E
:1019F000E06C1CEA11541DBF1CEA135594EA0C0F4D
:101A000095EA0C0F00F0A7F8A4EB050481EA030E99
:101A100052EA03354FEA013100F088804FEA033380
:101A20004FF0805545EA131343EA12634FEA02224E
:101A300045EA111545EA10654FEA00260EF000410F
:101A40009D4208BF964244F1FD0404F5407402D261
:101A50005B084FEA3202B61A65EB03055B084FEAF2
:101A600032024FF480104FF4002CB6EB020E75EBEF
:101A7000030E22BFB61A754640EA0C005B084FEA17
:101A80003202B6EB020E75EB030E22BFB61A754694
:101A900040EA5C005B084FEA3202B6EB020E75EBDF
:101AA000030E22BFB61A754640EA9C005B084FEA57
:101AB0003202B6EB020E75EB030E22BFB61A754664
:101AC00040EADC0055EA060E18D04FEA051545EA53
:101AD00016754FEA06164FEAC30343EA52734FEAFC
:101AE000C2025FEA1C1CC0D111F4801F0BD141EA75
:101AF00000014FF000004FF0004CB6E711F4801FDA
:101B000004BF01430020B4F1FD0C88BFBCF5E06FB9
:101B10003FF6AFAEB5EB030C04BFB6EB020C5FEAC9
:101B2000500C50F1000041EB045170BD0EF0004E1E
:101B30004EEA113114EB5C04C2BFD4EB0C0541EA50
:101B4000045170BD41F480114FF0000E013C90E64D
:101B500045EA060E8DE60CEA135594EA0C0F08BF11
:101B600095EA0C0F3FF43BAF94EA0C0F0AD150EA10
:101B700001347FF434AF95EA0C0F7FF425AF1046A3
:101B800019462CE795EA0C0F06D152EA03353FF4CB
:101B9000FDAE1046194622E750EA410618BF52EA48
:101BA00043067FF4C5AE50EA41047FF40DAF52EA1C
:101BB00043057FF4EBAE12E74FF0FF3C06E000BFB9
:101BC0004FF0010C02E000BF4FF0010C4DF804CDC6
:101BD0004FEA410C7FEA6C5C4FEA430C18BF7FEA86
:101BE0006C5C1BD001B050EA410C0CBF52EA430CB4
:101BF00091EA030F02BF90EA020F0020704710F134
:101C0000000F91EA030F58BF994208BF90422CBFC2
:101C1000D8176FEAE37040F0010070474FEA410CBB
:101C20007FEA6C5C02D150EA013C07D14FEA430CD9
:101C30007FEA6C5CD6D152EA033CD3D05DF8040B4A
:101C4000704700BF8446104662468C46194663467C
:101C500000E000BF01B5FFF7B7FF002848BF10F153
:101C6000000F01BD4DF808EDFFF7F4FF0CBF012098
:101C700000205DF808FB00BF4DF808EDFFF7EAFF14
:101C800034BF012000205DF808FB00BF4DF808EDCF
:101C9000FFF7E0FF94BF012000205DF808FB00BFC4
:101CA0004DF808EDFFF7CEFF94BF012000205DF84E
:101CB00008FB00BF4DF808EDFFF7C4FF34BF01205B
:101CC00000205DF808FB00BF4FEA410C7FEA6C5C26
:101CD00002D150EA013C0AD14FEA430C7FEA6C5C26
:101CE00002D152EA033C02D14FF0000070474FF09E
:101CF000010070474FEA4102B2F1E04324BFB3F55F
:101D0000001CDCF1FE5C0DD901F0004C4FEAC00272
:101D10004CEA5070B2F1004F40EB830008BF20F056
:101D20000100704711F0804F21D113F13872BCBF10
:101D300001F00040704741F480114FEA5252C2F165
:101D40001802C2F1200C10FA0CF320FA02F018BFAE
:101D500040F001004FEAC1234FEAD32303FA0CFC01
:101D600040EA0C0023FA02F34FEA4303CCE77FEA90
:101D7000625307D150EA01331EBF4FF0FE4040F4DA
:101D80004000704701F0004040F0FE4040F4000089
:101D9000704700BF53B94AB9002908BF00281CBFCB
:101DA0004FF0FF314FF0FF3000F06EB9ADF1080C8D
:101DB0006DE904CE00F006F8DDF804E0DDE9022369
:101DC00004B070472DE9F047089D04468C46002B6F
:101DD00040F083808A42174647D9B2FA82F242B174
:101DE000C2F1200024FA00F09140974040EA010C33
:101DF00094404FEA1748230CBCFBF8F61FFA87FE05
:101E000008FB16C143EA014306FB0EF1994209D9CA
:101E1000FB1806F1FF3080F01981994240F21681DB
:101E2000023E3B445B1AA4B2B3FBF8F008FB10334C
:101E300044EA034400FB0EFEA64509D93C1900F113
:101E4000FF3380F00581A64540F2028102383C4410
:101E500040EA0640A4EB0E0400261DB1D440002346
:101E6000C5E900433146BDE8F08702B9FFDEB2FAAA
:101E700082F2002A50D1CB1B4FEA174E1FFA87F887
:101E80000126B3FBFEFC210C0EFB1C3341EA03418F
:101E900008FB0CF38B4207D979180CF1FF3002D202
:101EA0008B4200F2E9808446C91AA3B2B1FBFEF06E
:101EB0000EFB101143EA014408FB00F8A04507D9C6
:101EC0003C1900F1FF3302D2A04500F2D980184638
:101ED000A4EB080440EA0C40BFE78B4209D9002D6F
:101EE00000F0B1800026C5E9000130463146BDE86A
:101EF000F087B3FA83F6002E4AD18B4202D3824296
:101F000000F2B880841A61EB030101208C46002D99
:101F1000A8D0C5E9004CA5E7C2F1200320FA03F6DA
:101F2000974001FA02F04FEA174ED9403043030CB4
:101F3000B1FBFEF61FFA87F80EFB161143EA0143C8
:101F400006FB08F1994204FA02F409D9FB1806F1DC
:101F5000FF3C80F08D80994240F28A80023E3B44F3
:101F60005B1A81B2B3FBFEF00EFB103341EA034172
:101F700000FB08F38B4207D9791800F1FF3C73D2BC
:101F80008B4271D902383944CB1A40EA064678E7C9
:101F9000C6F1200C03FA06F422FA0CF31C4320FAD3
:101FA0000CF701FA06F34FEA144E21FA0CF11F4325
:101FB0003B0CB1FBFEF91FFA84F80EFB191143EA42
:101FC000014109FB08FA8A4502FA06F200FA06F313
:101FD00008D9611809F1FF3048D28A4546D9A9F1DC
:101FE00002092144A1EB0A01BFB2B1FBFEF00EFBD6
:101FF000101147EA014700FB08F8B84507D9E7196F
:1020000000F1FF312ED2B8452CD90238274440EADE
:102010000940A7EB0807A0FB02894F45C646494681
:102020001AD317D05DB1B3EB0E0267EB010707FAC5
:102030000CFCF2404CEA0202F740C5E900270026FA
:102040003146BDE8F0872E4628460BE70646E9E60E
:102050001846FDE64345E5D2B8EB020E69EB0401F4
:102060000138DFE70846D2E760468DE78146B9E7E9
:10207000664675E730464AE7ACF1020C394413E78F
:1020800002383C4424E700BF704700BF00230146EC
:102090001A46184600F030B9014B1868704700BF67
:1020A000080C002038B50A4C0A4D641BA4100AD055
:1020B00004F18043013B05EB8305013C55F80439ED
:1020C0009847002CF9D1BDE838400BF045B800BF67
:1020D000AC010008A8010008844641EA000313F09F
:1020E00003036DD1403A41D351F8043B40F8043B1F
:1020F00051F8043B40F8043B51F8043B40F8043BE2
:1021000051F8043B40F8043B51F8043B40F8043BD1
:1021100051F8043B40F8043B51F8043B40F8043BC1
:1021200051F8043B40F8043B51F8043B40F8043BB1
:1021300051F8043B40F8043B51F8043B40F8043BA1
:1021400051F8043B40F8043B51F8043B40F8043B91
:1021500051F8043B40F8043B51F8043B40F8043B81
:1021600051F8043B40F8043B403ABDD2303211D321
:1021700051F8043B40F8043B51F8043B40F8043B61
:1021800051F8043B40F8043B51F8043B40F8043B51
:10219000103AEDD20C3205D351F8043B40F8043B21
:1021A000043AF9D2043208D0D2071CBF11F8013B1F
:1021B00000F8013B01D30B8803806046704700BFE5
:1021C000082A13D38B078DD010F003038AD0C3F1F4
:1021D0000403D21ADB071CBF11F8013B00F8013BD6
:1021E00080D331F8023B20F8023B7BE7043AD9D395
:1021F000013A11F8013B00F8013BF9D20B7803706A
:102200004B7843708B78837060467047F0B48607D4
:1022100046D0541E002A3CD0CAB2034602E014F154
:10222000FF3436D303F8012B9D07F8D1032C29D9AD
:10223000CDB245EA05250F2C45EA054533D9A4F171
:102240001006360903F1200707EB061703F1100209
:1022500042E9045542E902551032BA42F8D1721CE3
:1022600014F00C0F03EB021204F00F0613D0331F0F
:1022700023F003030433134442F8045B9342FBD17D
:1022800006F003042CB1C9B21C4403F8011B9C42A4
:10229000FBD1F0BC704734461346002CF3D1F8E76D
:1022A00014460346C2E71A462646E0E7024B1B687F
:1022B0000022C3E92A027047080C00200B4B0C488F
:1022C0001968D1E92A2310B40A4C00FB02F004FB80
:1022D0000300A2FB043404445A1C44F10000C1E989
:1022E0002A205DF8044B20F000407047080C0020C5
:1022F0002DF451582D7F954CF0B4184C2568D5F825
:10230000484114B365681F2D24DC38B9AB1C013576
:10231000656044F823100020F0BC704704EB85068C
:102320000127C6F8882007FA05F2D4F88871022838
:1023300047EA0207C4F88871C6F80831E6D1D4F834
:102340008C311A43C4F88C21E0E705F5A674C5F872
:102350004841D7E74FF0FF30DEE700BF98D10008D3
:1023600000F02EBC08B500221046114603F04AFAD0
:10237000012003F0C1FDBDE8084005F037BF08B5F6
:10238000002003F0B9FDBDE8084005F050BF000093
:102390001749C0EB00438B424FF0FF02B3FBF2F250
:1023A0000AD892B20923B2FBF3F2124B1A60A8B911
:1023B0001148022108F0C2BE02F5235236320F4BFB
:1023C0001202B2FBF3F202FB02F35A43120AB2F515
:1023D000803F14BF92B24FF6FF72E6E7064883686B
:1023E00002215A434FF6FF73B2FBF3F208F096BE98
:1023F0008367140084150020E8260020F5280100DA
:102400000148022108F09ABEE82600201749C0EBD7
:1024100000438B424FF0FF02B3FBF2F20AD892B2B4
:102420000923B2FBF3F2124B1A60A8B91148032139
:1024300008F084BE02F5235236320F4B1202B2FB73
:10244000F3F202FB02F35A43120AB2F5803F14BFC3
:1024500092B24FF6FF72E6E70648836803215A43BB
:102460004FF6FF73B2FBF3F208F058BE8367140017
:1024700080150020E8260020F528010001480321EE
:1024800008F05CBEE826002038B5164D16491748FE
:10249000174C08F032FE287800F00700C0EB00204F
:1024A000C0F38700FFF774FF4FF481724FF480711F
:1024B000204609F08BFE287800F00700C0EB0020D2
:1024C000C0F38700FFF7A2FF20464FF481724FF45C
:1024D000007109F07BFEFFF7D1FFBDE83840FFF740
:1024E0008FBF00BF7C150020F8100020E8260020D8
:1024F0000004004808B505F0FCFC08B905F082FDB1
:1025000005F02EFD034B1860FFF7BEFFBDE8084045
:1025100004F0C7BB7C15002008B5044B14201860DC
:1025200005F021FDBDE8084005F025BD7C15002023
:1025300045F62843984215D845F6194398420AD8DB
:10254000B0F5B44F09D2B0F5B04F04D2A0F5804336
:10255000B3F5A85F04D200207047B0F5B84FFAD0A9
:1025600001F0C4BA45F6DB439842F4D0A0F5C0436D
:10257000B3F5005FEEE7A0F58073B3F5F85F30B414
:1025800027D210F4805F00F4807300F4007500F42B
:10259000806400F400620ED0002B0CBF00201020DD
:1025A0000DB140F020000CB140F040000AB140F005
:1025B000800030BC0847181E18BF01200DB140F044
:1025C00002000CB140F00400002AF2D040F00800F4
:1025D000EFE730BC70470000A0F1E003072B10B517
:1025E000044600D940B905492046FFF7C4FFE0B2D0
:1025F000BDE8104004F030BC0149F6E73B7000082C
:102600005974000810B50446C0B204F0A9FCA4F146
:10261000E003072B00D92CB903492046BDE8104040
:10262000FFF7A9BF0149F8E74D7000086B74000877
:1026300010B50446FFF7D0FF2046BDE81040FFF775
:10264000E1BF012070470120704708B5FFF7FBFF8D
:1026500008BD704708B5FFF7FCFF08BD13B502AB16
:1026600003E903000F4B1B78B3B99DF802300098C3
:1026700073B16AB105F0E0FA04460146009805F02E
:1026800097FA0099204602B0BDE8104000F0D6B895
:1026900005F0B2FA0446F4E7009805F0CDFA009987
:1026A000F1E700BFDD1F002003460A460068998855
:1026B000FFF7D4BF10B500210446FFF7F5FF214610
:1026C000FFF7C8FF10BD08B505F013FC08B905F009
:1026D00099FC00F0FFFF03F0A1FBBDE80840FFF705
:1026E0003FBE08B501F03CFA03F034FABDE80840FB
:1026F00000F068BA704708B5FFF7FCFF08BD01207D
:10270000704708B5FFF7FBFF08BD10B50446FFF79B
:10271000F2FF2046FFF7F5FF10BD704710B504F03B
:10272000C7FE01F0DBF905F0C9FD002204460321D4
:10273000094800F04BFFFFF7F0FF204605F0C3FD0E
:10274000F92805D901F034F8BDE8104005F0C8BDFE
:10275000642008F066F9F0E73C11002038B501214B
:102760000446FFF7A1FF2146054603F075F908B9B5
:10277000002038BD21462846FFF767FF0028F7D024
:102780002146284600F046FB0028F1D02146284685
:1027900001F048FA0028EBD02146284604F062F9FF
:1027A0000028E5D02146284603F09EFF0028DFD010
:1027B0002146284603F0F2FF0028D9D021462846BA
:1027C00004F0E8F80028D3D02146284603F05EFE46
:1027D0000028CDD0A37813B345F601439D4209D01C
:1027E00045F6DB439D4217D0B5F5B84F17D1FFF73B
:1027F00095FFBDE70C4A1078C0F3000383F0010396
:1028000063F3000010F00104107003D0074806F0D5
:10281000C3F8ADE70648FAE705F0F4FBA8E7204661
:10282000FFF70FFFA5E700BF7320002088D5000841
:1028300099D50008002070477047000030225043AF
:10284000C1F30723062202FB030353FA81F1034B72
:1028500033F8110082B002B0704700BF9CD100086D
:10286000014B33F810007047DAD5000813B5ADF806
:1028700004100199FFF7E2FF00F0CCF8B0F5A04F8B
:10288000044630D2B0F5804F80F08A80E72817D810
:10289000DF280AD8A7280BD8A4286AD8012804D092
:1028A000031F9BB2A12B28BF0024204602B010BDFD
:1028B000BE2864D9C03880B21F286AD90024F4E742
:1028C000B0F5405F09D2B0F5005F60D2FF2854D860
:1028D000EF28F3D940F4A04024E00205C3B25CD451
:1028E00043F44044E1E7B0F5AA4F1DD2B0F5A84F3C
:1028F000C3B275D2B0F5A64F0AD2B0F5A44F64D2D8
:10290000B0F5A24F51D34AF2F10040EA0324CCE7DC
:102910009C08012003F0030300FA03F343EA441088
:1029200040F40A4084B2C0E7B0F5B44F0FD2B0F51E
:10293000B24F61D2B0F5AC4F55D3A0F5B0439BB2C6
:10294000FF2BBBD84AF2F00040EA0420EAE7A0F5EA
:10295000C0439BB2B3F5005FB0D2C0F3042000F0D7
:10296000D9F8000200F4F853E4B21C4344F40054D4
:102970009BE7A0F1240444F48044A4B295E75834C2
:10298000E4B2234B33F8140040F488448DE7C0F3DD
:102990000B00FFF765FF044687E743F4484484E7EC
:1029A000C0F30B0040F420447FE7C3F38104C0F37D
:1029B0000110640144EA002403F00303012000FA3B
:1029C00003F31C4344F40C40ACE79C08012003F0E3
:1029D000030300FA03F343EA441040F40C40A1E778
:1029E0004AF2F40091E7C0B200F094F8000200F45B
:1029F000F85040F4005458E700F00F0000F08AF857
:102A0000C4F3031440EA042040F410408AE700BFF6
:102A1000ACD50008E7284DD8DF2807D8312861D089
:102A20000ED8292857D02A2863D07047A0F1E00398
:102A3000072B3FD8DFE803F0123E2126303E3A3F15
:102A4000392804D0822802D035283DD07047304B39
:102A50001B7813F0030F18BFE02070472C4A13783F
:102A6000D9074DD4527812F0010F23D013F0100F74
:102A700008BFE32018BF00207047254B1B7813F0D8
:102A8000040FF2E7224A137859073BD45278D20751
:102A90003AD413F0100FEDE71D4B5A78910709D582
:102AA0001B7813F0100F08BFE720E3E7184B1B78E3
:102AB0001A07F6D47047164A1378190726D45278A5
:102AC0009207E6D5E420F5E7114B1B7813F0200FB1
:102AD00018BF292070470E4B1B7813F0200F18BF2A
:102AE000352070470A4B1B7813F0400F18BF2A207F
:102AF0007047074B1B7813F0400F18BF3120704709
:102B000039207047E2207047E0207047E620704788
:102B100078200020294B1A78510707D500F01801BA
:102B2000082927D100F0F70040F00400110707D56D
:102B300000F01801182926D100F0E70040F0140039
:102B40005B78D90707D500F01801082924D100F0D7
:102B5000F70040F00100990707D500F01803182B83
:102B600023D100F0E70040F01100D30648BF00F089
:102B7000E700704700F01401042904BF00F0FB00D7
:102B800040F00800D2E700F01401142904BF00F05F
:102B9000EB0040F01800D3E700F01101012904BF59
:102BA00000F0FE0040F00800D5E700F01103112B03
:102BB00004BF00F0EE0040F01800D6E778200020B7
:102BC0007047704708B5FFF7FCFF08BD014B185C64
:102BD000704700BF881500202DE9F0410F48104DC7
:102BE000DFF84C800F4F104E05F0D6FE0024214632
:102BF000404605F0D1FE384605F0CEFE15F8010B33
:102C000005F064F90146304605F0C6FE0134074878
:102C100005F0C2FE082CEAD1BDE8F081DAD5000843
:102C200088150020A0E30008EED500087CE200082B
:102C3000E9D50008032007F0F4BE000070B51B4D75
:102C40000824012655F8040B00F00F01202206FA93
:102C500001F120F00F00013C09F0B8FA14F0FF0474
:102C6000F0D1134D0624012655F8040B00F00F0196
:102C7000202206FA01F120F00F00013C09F0A6FA2B
:102C800014F0FF04F0D10B490B4A0823013B13F069
:102C9000FF0301F8014B02F8014BF7D1082000F0C7
:102CA0006BF8BDE87040FFF70EBD00BF0CD6000802
:102CB000F4D5000890150020881500202DE9F74371
:102CC000294F2A4E082400254FF0010857F8041B0D
:102CD00021F00F0001F00F0108FA01F10122CDE906
:102CE000000109F073FA019900988BB24383FFF752
:102CF000A1FFDDE900010023DFF878C099465CF808
:102D0000042B22F00F0E02F00F02DEF810E02EFA74
:102D100002F2D2075ABF08FA03F252B2002201337C
:102D200042EA0902062B5FFA82F9E8D1202209F073
:102D30004DFA3378013C4B451ABF86F800900123C9
:102D4000002314F0FF0445EA030506F10106BDD196
:102D5000074906482B46082200F010F8FFF7C1FC8F
:102D6000284603B0BDE8F0830CD60008901500207B
:102D700088150020F4D5000870470000F8B50F4C06
:102D800006460F4615462BB10123237005F096FA2F
:102D90000B4B188023782BB1094B188805F093FA58
:102DA000052808D8F8BDF25CFA5401339D42FADCDC
:102DB00000232370F6E70023F8E700BF98150020F2
:102DC0009A15002000000000453807EE900AF8EE42
:102DD000E77AB2EE087AC7EE877A08B517EE900A5E
:102DE000FEF780FC9FED080B41EC110BFDF7D0FACC
:102DF000074B51EC100B0022FEF7CCFCFEF77AFFDC
:102E000000EE100A08BD00BF0000000000000040F6
:102E100000807B4008B545F61A43984205D18B786F
:102E200073B300F01BFE002008BD45F61B4398421B
:102E300004D18B7823B300F01FFEF4E745F61C4362
:102E4000984206D18B78DBB100F000FE0028F2D169
:102E5000E7E745F62743984209D18B7883B100F024
:102E60001BFE08480022042100F0B0FBDBE745F61A
:102E70002843984204D18B7813B100F013FEF0E799
:102E80000120D1E75411002008B5FFF79DFFBDE8F0
:102E900008400F2000F05ABD08B5FFF795FFBDE8C8
:102EA000084000F0D1BC00F083BC7047024A1368B0
:102EB00001331360704700BFE415002000000000DC
:102EC0002DE9F04FD04B2DED068B1A7883B09B4641
:102ED000002A00F01B81CD4E3368002B40F3168191
:102EE000012BDFF884A3DFEDCA9ACA4CCA4F9FEDCD
:102EF000CB9A00F0A680DAED007AF4EE697AF1EE72
:102F000010FA40F03F8204EB830313ED028AC44BB6
:102F1000C44D1B78002B00F03282D5ED008AF4EE10
:102F2000698AF1EE10FA00F0DE81F4EEC88AF1EE63
:102F300010FA40F1D881DFEDBC7A87EE887AF2EEA4
:102F400008AAC7EE2A7AB6EE00AA67EE8A7A17EECA
:102F5000900AFEF7C7FB9FEDAA0B41EC110BFDF7A2
:102F600017FA53EC102B18EE900ACDE90023FEF768
:102F7000B9FB804618EE100A8946FEF7B3FBDDE97F
:102F80000023FEF707FC02460B4640464946FEF783
:102F900073FE002800F0A78195ED008ADFEDA37A8B
:102FA00087EE887AC7EE2A7A67EE8A7A17EE900A59
:102FB000FEF798FB9FED920B41EC110BFDF7E8F942
:102FC00059EC108B18EE100AFEF78CFB42464B466C
:102FD000FEF7E0FBFEF78EFE286095ED000A3B88C9
:102FE000934D4FF6FF7293421CBF01333B8000F0BC
:102FF0005FFDB4EEC90AF1EE10FA00F1C6812B684C
:10300000FCEEC07A03EB830317EE902A03EB8303F5
:103010009B0092B29BB29A4200F0BA81DFED857AB2
:10302000854820EE270ABCEEC00A85ED000A08F0AC
:1030300020F87F49804807F0FCFF7F48022108F014
:103040000AF8DAED006A3368F5EEC06AF1EE10FABC
:1030500040F3A381012B794921DD086890FBF3F24D
:1030600003FB120276480A6090ED007AF7EE007AD0
:1030700004EB820577EE277A95ED006AC0ED007AC1
:10308000C6EE267AB4EEE77AF1EE10FA07DD0132E9
:1030900092FBF3F503FB15220A60C0ED009A0B6862
:1030A00004EB830494ED000A3B88664C4FF6FF72F4
:1030B00093421CBF01333B8000F0FAFCB4EEC90A16
:1030C000F1EE10FA00F121822368FCEEC07A03EBE6
:1030D000830317EE902A03EB83039B0092B29BB20B
:1030E0009A4200F01582DFED537A574820EE270A06
:1030F000BCEEC00A84ED000A07F0BBFF51495248FC
:1031000007F097FF5048022107F0A5FF4F4C2378A6
:10311000002B00F0DE804E4D4A4E95ED000AB5EED4
:10312000C00AF1EE10FA3BDD3B4A13884FF6FF71FF
:103130008B421CBF0133138000F0BAFC3368FCEEF5
:10314000C07A03EB830317EE902A03EB83039B0003
:1031500092B29BB29A4223D0DFED367A3A48DFF83A
:10316000D08020EE270AFCEEC07A17EE907AC6EDEA
:10317000007A07F07EFF3349334807F05AFF0221F7
:10318000314807F068FF2C48C8F8007007F071FF5D
:103190002948414607F04DFF2748022107F05BFF11
:1031A0002C482D49038891ED007A01339BB207EE3C
:1031B000903A0380336803EB830303EB83039B00A4
:1031C000F2EE006A9BB2F8EEE77A27EE267A002B41
:1031D00000F0A381214B1B78002B40F09E81F7EE7D
:1031E000006A37EE667AB4EEE77AF1EE10FA94BF31
:1031F00001230023002B6CD0194A1A4E138835E0A6
:103200000000000000000040EC150020F815002030
:1032100000000000A4150020A01500200024F441A7
:1032200074110020C81500200000DCC30000DC433E
:10323000881100200000C842AC260020F4150020B0
:10324000E8150020781100209C260020ED150020B4
:10325000CC150020D4150020D0150020D615002054
:103260009E150020D8150020F01500203688013367
:103270009BB29E42138006D8C34B1E78002E00F0EE
:10328000548100231380C14EC14B96F800C01F68C3
:103290001388BCF1000F40F05481013B9BB21380B6
:1032A00007EBC303D3ED007A93ED027AF4EE477A8D
:1032B000F1EE10FA4FF0010C4FF07E5308BF0022E0
:1032C00086F800C00CBF2A60C5ED007A0B600023B1
:1032D0000380B04B1A78C2F30003D2075CBF23709F
:1032E0008BF8003028E1D5ED008AF5EE408AF1EE4A
:1032F00010FA3DD0336804EB830313ED028AF4EE39
:10330000C88AF1EE10FA33DDDFEDA37A87EE887A12
:10331000F2EE08AAC7EE2A7AB6EE00AA67EE8A7A1B
:1033200017EE900AFEF7DEF99FED950B41EC110BBD
:10333000FDF72EF853EC102B18EE900ACDE9002380
:10334000FEF7D0F9804618EE100A8946FEF7CAF952
:10335000DDE90023FEF71EFA02460B4640464946C9
:10336000FEF7A8FC20B195ED008ADFED8C7A17E618
:10337000336804EB830353F8083C2B602DE685ED9E
:10338000008A2AE6B0EE690A29E69FED850A45E63D
:10339000844807F06EFE29464CE604EB830313EDE8
:1033A000018A814B814D1B78002B00F0AB80D5ED5D
:1033B000008AF5EE408AF1EE10FA57D0F4EEC88A92
:1033C000F1EE10FA52D5DFED757A87EE887AB2EE1B
:1033D00008AAC7EE0A7AF6EE009A67EEA97A17EE07
:1033E000900AFEF77FF99FED660B41EC110BFCF79D
:1033F000CFFF53EC102B18EE900ACDE90023FEF717
:1034000071F9804618EE100A8946FEF76BF9DDE97E
:103410000023FEF7BFF902460B4640464946FEF739
:103420002BFC18B395ED008ADFED5B7A87EE887A86
:10343000C7EE0A7A67EEA97A17EE900AFEF752F9FC
:103440009FED4F0B41EC110BFCF7A2FF59EC108BD9
:1034500018EE100AFEF746F942464B46FEF79AF977
:10346000FEF748FC286095ED000A1DE6D5ED008AC0
:10347000F5EE408AF1EE10FA3DD0336804EB830399
:1034800013ED018AF4EEC88AF1EE10FA33DDDFEDB8
:10349000427A87EE887AB2EE08AAC7EE0A7AF6EE8A
:1034A000009A67EEA97A17EE900AFEF71BF99FEDD6
:1034B000340B41EC110BFCF76BFF53EC102B18EEA7
:1034C000900ACDE90023FEF70DF9804618EE100AA8
:1034D0008946FEF707F9DDE90023FEF75BF90246AE
:1034E0000B4640464946FEF7E5FB20B195ED008AC4
:1034F000DFED2A7A9AE7336804EB830454F8043C3E
:103500002B60B0E785ED008AADE79FED250AEAE57F
:10351000274807F0AEFD2146F1E5F4EEC77AF1EE5B
:1035200010FAACBF0123002364E6214807F0A1FD97
:103530001C4807F09EFD267003B0BDEC068BBDE86D
:10354000F08F0022327007EBC3031A4EDFED1A6AC8
:1035500032801A682A60194A127807EE102AB8EEEB
:10356000477AC7EE267A93ED017AF5EE006A27EEE8
:10357000267A67EE877AC1ED007AA8E6AFF300807D
:103580000000000000000040E0150020D6150020DB
:10359000DC1500209C1500200000DC430000DCC38B
:1035A000F628F441AC26002074110020C415002038
:1035B0009C260020A01500200000C842A811002071
:1035C000014807F00DB800BF2CD600082D4B1B7822
:1035D00070B504460E4615460BB900F07BF82A4B31
:1035E0001B78DB074DD5294B1B780BB100F0E0F8B9
:1035F000274BDFED286A284801221A70274B1C60F0
:10360000274B1E80274B1D70274B00221A60274A2C
:10361000216800231380264A1160264A2649127821
:1036200007EE102AB8EE477A244AC7EE267A94EDC0
:10363000017AF5EE006A27EE267A67EE877AC2ED08
:10364000007A1F4A138007F0F4FC0221124807F0A9
:1036500002FD1C4807F00DFD1B491A4807F0E9FC64
:103660000221184807F0F7FC184807F002FD184936
:10367000164807F0DEFCBDE870401448022107F050
:10368000EABC70BD9D1500209C150020EC150020A3
:10369000ED1500200000C842BC260020DC150020EB
:1036A000D8150020E0150020E81500209E15002008
:1036B000CC150020A811002098110020D015002062
:1036C000D41500209C26002078110020AC26002074
:1036D0008811002038B5274C2278002A48D104F000
:1036E00008FC08B904F08EFC04F033FC224D0322E0
:1036F000287010214FF0904008F068FD032220212F
:103700004FF0904008F062FD1C491D4807F06DFC29
:103710001C491D4807F069FC1C491D4807F089FC3D
:103720001B48022107F097FC1A491B4807F081FC4F
:103730001948022107F08FFC184A194910486423E0
:1037400007F061FC6423174A17490F4807F05BFC38
:10375000012323702B78DB0706D5BDE838401348DA
:1037600000220321FFF732BFBDE8384000F020B847
:1037700038BD00BF9D1500209C15002084D6000890
:10378000602400208AD600089024002078110020B0
:103790009C26002088110020AC26002090D600082E
:1037A00020D8000858D7000830D80008B0110020F1
:1037B000174B1B78DB0710B502D5164805F0ECF85F
:1037C000154B1B780BB9FFF785FF144B14480024E9
:1037D0001C6007F04EFC134807F04BFC124807F042
:1037E00048FC124B12481C70124B13491C70134BAF
:1037F00000221A60124B1A60124B1C600823013B16
:1038000013F0FF0340F8042B41F8044BF7D110BD2F
:103810007320002038D600089D150020F8150020E0
:103820009C260020AC260020BC260020ED150020A0
:10383000A4150020EC15002000160020C41500205F
:10384000C8150020FC15002070B5324B1B78DC0732
:103850002DED028BB0EE408A06D5FDEEC07A2E48E3
:1038600017EE901A05F098F82C4C2378002B3CD0DA
:103870002B4B1B780BB9FFF72DFF2A4907230A466C
:10388000D1ED077AF4EE487AF1EE10FA3CD102EB72
:103890008301002008602449002502EB830241F8DF
:1038A0002350043201EB8301072B21D11F4B1A68EF
:1038B000013A48BF00221A601D681D4B1A68AA42CF
:1038C000A4BF00221A6085B91A4807F0D2FB1A4833
:1038D00007F0CFFB194807F0CCFB194A25700023ED
:1038E0001360184A1360184B1D60BDEC028B70BD4D
:1038F00052F8046B42F8086C4E680E60013341F8D0
:10390000045F42F8040CCFE7013B581CA1F104010D
:10391000B6D1CBE7732000204DD60008EC1500206F
:103920009D150020A415002000160020F815002089
:10393000F41500209C260020AC260020BC26002088
:10394000C4150020C8150020FC15002038B52F4BE9
:103950001B78DA072DED028B0546B0EE408A07D5BD
:10396000FDEEC07A024617EE901A294805F014F8C9
:10397000284B1B780BB9FFF7ADFE274B1B78DB07F5
:1039800040D5264C2368072B3CDC254B1B780BB11C
:10399000FFF70EFF234B01221A70B5EEC08A224BAF
:1039A0000022F1EE10FA1A800ADD23681F4A02EBAA
:1039B000830282ED008A1E4A42F8235001332360BD
:1039C0001C491D4807F035FB02211B4807F043FB4B
:1039D0001A4807F04EFB1A49184807F02AFB022143
:1039E000164807F038FB174807F043FB16491548FF
:1039F00007F01FFBBDEC028B1248BDE838400221E6
:103A000007F029BBBDEC028B38BD00BF732000203E
:103A100065D600089D1500209C150020F815002093
:103A2000ED150020EC150020A0150020A4150020A5
:103A30000016002098110020BC2600209C260020A3
:103A400078110020AC26002088110020024B187845
:103A500000F00100704700BF9C15002008B5054B21
:103A6000187840F00100187004F076FABDE80840BC
:103A7000FFF71BBA9C15002008B5FFF799FE054B10
:103A800018786FF300001870BDE80840C0B204F069
:103A900063BA00BF9C150020014B00221A707047CA
:103AA00020160020014B00221A70704720160020BB
:103AB000064B1B7843B9064A1370064B4FF07C52F5
:103AC0001A60054B00221A60704700BF20160020C4
:103AD00074110020AC110020F0150020024B1B785F
:103AE0000BB1FFF7E0B9704722160020FE288CBF0B
:103AF000002001207047000008B5FFF7EFFF044BDE
:103B0000044800221A700821BDE80840FFF75EBD96
:103B100022160020EC120020034B0448002208214A
:103B20001A70FFF753BD00BF21160020C8110020F6
:103B300010B5FFF7D3FF084A08481378013303F0A4
:103B400003031370282404FB03000022BDE8104087
:103B50000521FFF73BBD00BF481200204C1200209A
:103B6000F8B5174B1B788BB1164C208840B904F080
:103B7000A5FB2080144C154D227842B1531E08E05D
:103B800004F0A1FB124B1B888342F0D3F8BD2B78C5
:103B9000013B104E317849B10F49C85C8F5CFFF78B
:103BA0007BF9337813B13846FFF76EF9237829781B
:103BB0000133B3FBF1F201FB12332370E6E700BFE0
:103BC0003416002038160020351600203316002049
:103BD00070130020221600202316002070470000DA
:103BE00008B5054B054801221A7008210022FFF78D
:103BF000EDFCFFF7F3FF08BD221600203013002074
:103C00007047000008B5054B054801221A700821CD
:103C10000022FFF7DBFCFFF7F3FF08BD21160020B1
:103C2000081200202DE9F04145F6234398428AB05E
:103C3000054606D18B78002B3ED0FFF7D1FF002040
:103C400053E045F62443984205D18B78002B33D0BE
:103C5000FFF752FFF3E745F62543984206D1654B3F
:103C60008A781B7842B3002BF2D1E6E745F6294368
:103C7000984204D18B78FBB1FFF7C4FFDFE745F62C
:103C80002A43984204D18B78B3B1FFF745FFD6E7BA
:103C900045F62B43984206D18B786BB1564B1B7877
:103CA000002BF2D1E8E745F62643984204D18B7801
:103CB00013B1FFF73DFFC2E74E4B1A7822B94E4BC6
:103CC0001B78002B00F094808E78002E3DD0E02DE4
:103CD0000ED1FFF703FF494B01221A70484B002019
:103CE0001870484B1870484B18700AB0BDE8F08146
:103CF000E22D0BD1FFF7F2FE404B1A7812B1404A89
:103D000001211170002018703E4BEDE7E32D0FD11B
:103D10003B4B1B78CBB1FFF7E1FE384B002018700E
:103D2000384B01221A70394B1870394B1880DCE778
:103D3000522D04D1374A13880A3B13807FE7512D57
:103D400003D1344A13880A33F7E74B7832480978AD
:103D5000062404FB030313F801C0304B1C78304BDE
:103D60001868304B24341B780444E4B2BBB9644473
:103D7000E4B2002E36D012B12046FFF785F81F4B73
:103D80001B782BB1204A28491378CC540133137087
:103D90002846FEF7CDFB80F00100C0B2A5E7234B1B
:103DA00001AF03F1200818685968BE46AEE8030069
:103DB000083343457746F6D11988AEF800109B7852
:103DC0008EF802300C21BCFBF1F303EB430001FB46
:103DD00013C30AA951FA83F304EB800413F8240CEB
:103DE0000444C5E7002AD3D02046FFF755F8CFE7B3
:103DF00001207AE722160020211600203716002025
:103E00003616002034160020331600203516002008
:103E100038160020701300209CD400087213002074
:103E20002C130020481200202316002060D1000827
:103E300008B500F08FF940F6FF7008BD08B50748D7
:103E400000F040F9064800F03DF9064800F03AF964
:103E5000BDE80840044800F035B900BF00E00308A1
:103E600000E8030800F0030800F80308B0F5805FDD
:103E70002DE9F041884602D30020BDE8F0814500DD
:103E800005F1006404F578344FF6FF7223889BB285
:103E900093424FEAA02604D1204600F035F980B2C3
:103EA000EBE7F602124F06F1006606F578364FF49E
:103EB000006231463846FEF70FF923789845DBD08B
:103EC00040F2FE702840002407F80080304600F0E1
:103ED000F9F8395D61F0FF014B1C03D089B230194C
:103EE00000F012F90234B4F5006FF2D1D7E700BF49
:103EF0003A16002080B2400000F1006000F57830F2
:103F00000078704780B2FFF7B1BF83B25B0003F166
:103F1000006303F578331A78431C9BB25B0003F10E
:103F2000006303F57833187842EA0020704738B50B
:103F300084B20D462046C9B2FFF798FF601C290ADB
:103F400080B2BDE83840FFF791BFFFF7F0BF10B572
:103F500083B25A0002F1006202F5783211785A1CDD
:103F600092B2520002F1006202F5783214789A1C83
:103F700092B25200033302F100629BB202F5783232
:103F80005B0003F10063127803F5783318781304AB
:103F900043EA04230B4343EA006010BD82B2F8B544
:103FA000571CBFB20C465300790003F1006301F1C6
:103FB000006103F5783301F57831961CB6B21878B4
:103FC00091F800C0710001F1006101F57831D51C54
:103FD000ADB20B78690001F1006101F578311B0485
:103FE000097843EA0C23034343EA0163A34213D055
:103FF000E1B21046FFF73AFFC4F307213846FFF756
:1040000035FFC4F307413046FFF730FF210E284645
:10401000BDE8F840FFF72ABFF8BD10B503460A44D3
:104020000846904200D110BD441CFFF763FF03F81F
:10403000010B2046F5E770B504460D468618B442DC
:1040400000D170BDA8B214F8011BFFF70FFF0135B6
:10405000F5E7FFF7F0BF00000B4BDA68D0070CD490
:10406000DA6851070BD4DA68D2060AD4D86800F0AF
:104070000100C0F10500C0B2704701207047022066
:1040800070470320704700BF0020024073B504460C
:10409000FFF7E2FF0025FF2601280FD114B9062003
:1040A00002B070BD01950196019B1BB9FFF7D4FFCB
:1040B000013CF1E7019B013B0193F5E7002C08BFB0
:1040C0000620EDE738B5054640F6FF70FFF7DEFF46
:1040D000052815D10B4C236943F002032361656168
:1040E000236943F04003236140F6FF70FFF7CEFFE2
:1040F00006281EBF236923F0020323613423E360F3
:1041000038BD00BF00200240104B00F178429A42B7
:1041100070B505460E4616D81F20FFF7B7FF0528D5
:1041200010D10B4C236943F0010323611F202E8023
:10413000FFF7ACFF06281EBF236923F001032361AC
:104140003423E36070BD0720FCE700BFFEFF0700DB
:1041500000200240034B044A5A6002F188325A6040
:10416000704700BF00200240230167457FB510F46F
:104170007F4F0190C0F30726C0F3074217D109B162
:104180002F4B9A5C8DF80C208DF80D208DF80E20A9
:104190009DF80C30002063F307009DF80D3063F3A9
:1041A0000F209DF80E3063F3174004B070BD9DF8EA
:1041B000043061B322498A5C03EB43046FF054007E
:1041C000FF216400B4FBF1F4604300EB430000EB1B
:1041D0004000C0B216FB00F31B12081A8D1BCB1A4D
:1041E00006FB00F10912C1F1FF015543534351434E
:1041F000C5F30725C3F30723C1F30721D2B2062C69
:1042000019D8DFE804F00608110F1418060092B25E
:10421000D2E713460A468DF80C208DF80D308DF844
:104220000E50B5E711461A462B460D46F3E70B46EE
:1042300011462A46F9E711462A461D460B46EAE78B
:1042400070DA000884B0012104B0FFF78FBF0128A5
:1042500030B501D8C0B230BDB0F5F75F9DBF42099F
:104260000832D2B2FF220124A3185910C3F3470524
:10427000C3F34F0313FB03F39BB2834205D96A1EBA
:10428000D2B29442F0D9601EE4E7FF2902D06C1C40
:10429000E4B2F6E70846DEE710F040031ABFC24377
:1042A000D2B2024610B502F00F0103B101310A4C3F
:1042B000C2F3011204EB42035B7813FB01F114F823
:1042C000123003EB2113DBB2020644BF5B42DBB2C8
:1042D00083F0800010BD00BF55DA000884B0C0F341
:1042E000072301901831124810F81100E42110FB47
:1042F00001F0C2EB10201C300028B8BF4042A3EBF5
:10430000C00000B220EAE07010FB03F000128DF84C
:104310000500019B0020DAB262F30700C3F3072215
:1043200062F30F20C3F3074363F3174004B07047F1
:104330003810002084B0C0F30743019018311248B0
:1043400010F81100E42110FB01F0C2EB10201C302A
:104350000028B8BF4042A3EBC00000B220EAE070E2
:1043600010FB03F000128DF80600019B0020DAB26A
:1043700062F30700C3F3072262F30F20C3F307437E
:1043800063F3174004B070473810002084B00190E8
:104390008DF80420019B0020DAB262F30700C3F31A
:1043A000072262F30F20C3F3074363F3174004B0FF
:1043B0007047000084B018310A4B019013F8113097
:1043C0009A1A8DF80420019B0020DAB262F30700EC
:1043D000C3F3072262F30F20C3F3074363F31740CD
:1043E00004B070473810002084B001900B4800EBF7
:1043F0004101002091F831309A1A8DF80420019B78
:10440000DAB262F30700C3F3072262F30F20C3F3AB
:10441000074363F3174004B0704700BF3810002013
:1044200030B5134B85B0183103EB4104019065782A
:1044300013F81130A5F1200464B2002CBCBFC5F103
:10444000200464B29A1A2244C0B210448DF80400C9
:10445000019B0020DAB262F30700C3F3072262F384
:104460000F20C3F3074363F3174005B030BD00BF0F
:104470003810002084B003EB43039DF81020019016
:1044800002EB53038DF80430019B0020DAB262F393
:104490000700C3F3072262F30F20C3F3074363F35C
:1044A000174004B070471FB5019048B20028BCBF48
:1044B000494248B25243C0F1380010FB002080B29C
:1044C0001C46FFF7C4FE00EB400004448DF8044096
:1044D000019B0020DAB262F30700C3F3072262F304
:1044E0000F20C3F3074363F3174004B010BD00006F
:1044F0001FB5124C0190183304EB430014F813302D
:104500004078703B5943203802FB0012002A9DF886
:104510000410B8BF7F3201EBE2128DF80420019B3A
:104520000020DAB262F30700C3F3072262F30F2020
:10453000C3F3074363F3174004B010BD38100020E5
:104540001FB5124C0190183304EB430014F81330DC
:104550004078703B5943203802FB0012002A9DF836
:104560000410B8BF3F3201EBA2128DF80420019B6A
:104570000020DAB262F30700C3F3072262F30F20D0
:10458000C3F3074363F3174004B010BD3810002095
:1045900030B5174D85B0183305EB430401906478AE
:1045A000203C624315F81340A4F170035BB2002B6A
:1045B000BCBFC4F170035BB2C3F1380301FB03213C
:1045C00011EB4101C0B248BF7F3100EBE1118DF822
:1045D0000410019B0020DAB262F30700C3F3072244
:1045E00062F30F20C3F3074363F3174005B030BDF8
:1045F0003810002084B0C9430190C9B2C0F307400D
:1046000011FB00F109128DF80610019B0020DAB2AF
:1046100062F30700C3F3072262F30F20C3F30743DB
:1046200063F3174004B0704784B0C9B20190C1F180
:104630008201C0B20029A8BF40188DF80400019B78
:104640000020DAB262F30700C3F3072262F30F20FF
:10465000C3F3074363F3174004B0704784B003EB20
:104660008302BDF81030019013449BB2FF2B28BF8A
:10467000FF23C0F30740DB4350FA83F3FF2B28BF2F
:10468000FF238DF80630019B0020DAB262F30700A9
:10469000C3F3072262F30F20C3F3074363F317400A
:1046A00004B070471FB50029B8BF4942002AB8BFFF
:1046B000524209B2090112B21201FF29BDF8184095
:1046C0000190A8BFFF21FF2AA8BFFF2223440CB2FC
:1046D00011B28C42A8BF0C4614FA83F4A4B2FF2C8A
:1046E00028BFFF24C0F30740E44350FA84F4FF2CB2
:1046F00028BFFF248DF80640019B0020DAB262F348
:104700000700C3F3072262F30F20C3F3074363F3E9
:10471000174004B010BD00001FB5482B0190C0F336
:10472000074030D8BDF81840E31A9BB2FF2B28BFD2
:10473000FF23083189B2102905D902F1080189B295
:10474000112928BFFF231149DB4350FA83F3002AC4
:104750004978B8BF0332FF2B01EBA20228BFFF2329
:104760008DF804208DF80630019B0020DAB262F348
:104770000700C3F3072262F30F20C3F3074363F379
:10478000174004B010BDFF23D3E700BFC41E0020B4
:1047900084B0C0F30741BDF810200190D31A9BB23A
:1047A000FF2B28BFFF23DBB2DA4351FA82F2FF2A44
:1047B00053FA80F028BFFF228DF804008DF8062000
:1047C000019B0020DAB262F30700C3F3072262F311
:1047D0000F20C3F3074363F3174004B0704784B05E
:1047E000BDF810200190D21A92B2FF2A28BFFF22F2
:1047F000C0F30740D24350FA82F2FF2A28BFFF22BB
:104800008DF80620019B0020DAB262F30700C3F3A3
:10481000072262F30F20C3F3074363F3174004B08A
:10482000704710B5044620B90029ACBF0020802095
:1048300010BD80EAE072A2EBE07213B20029A6BFBD
:10484000CB1A5B015B1A01FA82F2B5BF520193FBEE
:10485000F2F392FBF3F3C3F12003B8BFC3F160039B
:104860005BB2D8B2002CBCBF4042C0B2E0E730B56A
:1048700085B0C0F30725EB1A01901046DCB2FFF7B4
:10488000D0FFC0EB801300EB83002044C0B210FBCC
:1048900005F000128DF80500019B0020DAB262F3EA
:1048A0000700C3F3072262F30F20C3F3074363F348
:1048B000174005B030BD30B585B0C0F30745EB1AE1
:1048C00001901046DCB2FFF7ACFFC0EB801300EBA9
:1048D00083002044C0B210FB05F000128DF80600E2
:1048E000019B0020DAB262F30700C3F3072262F3F0
:1048F0000F20C3F3074363F3174005B030BD30B555
:1049000085B0C0F307259DF82040019010461C1B80
:10491000FFF787FF2C44E4B2201AC0B210FB05F069
:1049200000128DF80500019B0020DAB262F3070047
:10493000C3F3072262F30F20C3F3074363F3174067
:1049400005B030BD30B585B0C0F307459DF82040B7
:10495000019010461C1BFFF764FF2C44E4B2201AA0
:10496000C0B210FB05F000128DF80600019B00207C
:10497000DAB262F30700C3F3072262F30F20C3F336
:10498000074363F3174005B030BD1FB501901046D3
:104990001C46FFF746FF03198DF80430019B0020E9
:1049A000DAB262F30700C3F3072262F30F20C3F306
:1049B000074363F3174004B010BD1FB59DF81840BE
:1049C00001901B1B1046DCB2FFF72BFF201A8DF85D
:1049D0000400019B0020DAB262F30700C3F3072250
:1049E00062F30F20C3F3074363F3174004B010BD15
:1049F000F0B5477802783A4D791EC8B2511EC9B257
:104A00007C1C531C8A42E4B2DBB20BD94FF0060C7B
:104A10000CFB075C1CF801601036FF2E28BFFF2638
:104A20000CF80160062606FB075616F802C00CF1CA
:104A3000200CBCF1FF0F28BF4FF0FF0C052B06F830
:104A400002C00AD816F803C00CF1100CBCF1FF0F1D
:104A500028BF4FF0FF0C06F803C0072C13D98A4279
:104A600033D8062101FB0051885C1030FF2828BF95
:104A7000FF20052B885427D8CA5C0D32FF2A28BF97
:104A8000FF22CA5420E08A420BD94FF0060C0CFBDF
:104A9000045C1CF801600D36FF2E28BFFF260CF8C1
:104AA0000160062606FB0454A65C1036FF2E28BFC4
:104AB000FF26052BA65405D8E65C0D36FF2E28BF31
:104AC000FF26E6548742CAD8F0BD062606FB0056EC
:104AD000745C0D34FF2C28BFFF247454C1E700BF61
:104AE000641E0020024808221C21FFF796BA00BF6E
:104AF000C41E0020024808221C21FFF7AABA00BFEA
:104B0000C41E002008B50C4B1B78DB0702D50B48F0
:104B100003F042FF0A4B1A46352102F8011B0949EE
:104B20000888897891707F22A3F801001A71BDE886
:104B30000840FFF7DFBF00BF7320002040D8000807
:104B4000C41E002083D1000838B51C4C2378D90737
:104B500032D51B4803F020FF2378DA072CD5194DF6
:104B60001948297801F0030103F016FF2378DB07C9
:104B700022D529781548890803F00EFF2378D80735
:104B80001AD56978124803F007FF2378D90713D59F
:104B9000A978104803F000FF2378DA070CD5E978EC
:104BA0000D4803F0F9FE2378DB0705D529790B487A
:104BB000BDE8384003F0F0BE38BD00BF73200020D0
:104BC00064D80008C41E00207ED800089DD80008C4
:104BD000BAD80008D8D80008F6D8000814D90008B8
:104BE0000020704770B515460E460446FFF7F8FFE3
:104BF000054B062202FB0434A35DFF2B1EBF2B5482
:104C00000130C0B270BD00BF38100020014BDB681E
:104C1000184700BF60DA000810B4034C6468A4466B
:104C20005DF8044B604700BF60DA00082DE9F04FE3
:104C3000334D344A2E7904787308168804EB8404C3
:104C400089B0E4B25E43C6F30723671DFFB2029347
:104C50002D4B03912F2FBB46814628BF4FF02F0BC2
:104C600003EB440803F18E0AE3B29B4506D82E2FCE
:104C70008CBF0020012009B0BDE8F08F14F80A2095
:104C800099F801301A4237D098F8313098F830004E
:104C9000203B9AB2703813FB03F381B200FB003063
:104CA00080B205910492FFF7D2FA029A95F801C0FA
:104CB00095F803E0059900920346A878049A039EAC
:104CC0004CEA002012B209B240EA0E40B047C0F3ED
:104CD00007238DF81C00C0F307408DF81D308DF8B8
:104CE0001E000798FFF7AEFAC0F30743C2B2C0F345
:104CF00007212046FFF790FF08F102080134B3E7CF
:104D0000C41E0020941E0020381000200149FFF727
:104D10008DBF00BFFF4800080149FFF787BF00BFF4
:104D2000454900080149FFF781BF00BF75440008ED
:104D30000149FFF77BBF00BFBB4900082DE9F04FD9
:104D40002DED028B2C4E2D4B047835791B8804EB0E
:104D500084046D08E4B25D43C5F30723671DFFB209
:104D600008EE103A85B0264B01912F2FBB468146A5
:104D700028BF4FF02F0B03EB440803F18E0AE3B278
:104D80009B4508D82E2F8CBF0020012005B0BDEC1C
:104D9000028BBDE8F08F14F80A2099F801301A420E
:104DA00026D0B378707896F803C098F8312098F838
:104DB0003010019D40EA0320203A703918EE103A75
:104DC00040EA0C40A847C0F307238DF80C00C0F35D
:104DD00007408DF80D308DF80E000398FFF732FA7A
:104DE000C0F30743C2B2C0F307212046FFF714FF08
:104DF00008F102080134C2E7C41E0020941E0020FE
:104E0000381000200149FFF799BF00BF6F48000824
:104E10000149FFF793BF00BFB74800080149FFF7FA
:104E20008DBF00BFA74400080149FFF787BF00BF3F
:104E30008B4900082DE9F74F0478234E234B357931
:104E40001B88DFF88CB004EB8404E4B2671DFFB26A
:104E5000AD082F2F05FB03F5BA468046894628BFCB
:104E60004FF02F0AC5F30725E1B28A4506D82E2F49
:104E70008CBF0020012003B0BDE8F08F14F80B2098
:104E800098F801301A421DD0B078737843EA0023B5
:104E9000F0782A4643EA0040C847C0F307238DF85C
:104EA0000400C0F307408DF805308DF80600019826
:104EB000FFF7C8F9C0F30743C2B2C0F30721204689
:104EC000FFF7AAFE0134CFE7C41E0020941E002085
:104ED000C61000200149FFF7ADBF00BFDD4200084A
:104EE0000149FFF7A7BF00BF354300080149FFF79D
:104EF000A1BF00BF8D4300080149FFF79BBF00BF62
:104F0000B54300080149FFF795BF00BFE94300081A
:104F10000149FFF78FBF00BF214400082DE9F04F82
:104F2000304E314A35792DED028B0478AB08158867
:104F300004EB84045D43E4B2C5F3072504F10509DD
:104F400087B05FFA89F9824605F14000B9F12F0F69
:104F5000C0B20391CB4628BF4FF02F0BFFF79CF94F
:104F6000803843B2284608EE103AFFF795F98038AA
:104F70004FFA80F8E3B29B4509D8B9F12E0F8CBFE8
:104F80000020012007B0BDEC028BBDE8F08F174A6E
:104F9000A15C9AF80120114222D0B278707896F87C
:104FA00003C0039F009540EA022018EE101A424603
:104FB00040EA0C40B847C0F307238DF81400C0F353
:104FC00007408DF815308DF816000598FFF73AF96F
:104FD000C0F30743C2B2C0F307212046FFF71CFE0F
:104FE0000134C7E7C41E0020941E0020C610002014
:104FF0000149FFF793BF00BFF14400080149FFF7E3
:105000008DBF00BF414500080149FFF787BF00BFC2
:10501000914500082DE9F04F0478304DDFF8C0B01D
:10502000DFF8C0A02B7904EB8404E4B2661DF6B26D
:1050300085B02F2EB1468046019128BF4FF02F0931
:105040004FF6FF77B7FBF3F7E0B2814506D82E2E77
:105050008CBF0020012005B0BDE8F08F14F80B20B4
:1050600098F801301A4228D09AF80030013B5BB220
:105070001A0624D539462B79A87859436B7843EA28
:105080000023E878C1F30F2143EA0040019B9847D1
:10509000C0F307238DF80C00C0F307408DF80D30E6
:1050A0008DF80E000398FFF7CDF8C0F30743C2B2A6
:1050B000C0F307212046FFF7AFFD0134C4E70AEB38
:1050C0000302527C824207D103F10C020AEB420236
:1050D000B2F80110B942CED3013BC9E7C41E00208B
:1050E000C61000203B1E00200149FFF793BF00BF00
:1050F000F54500080149FFF78DBF00BF29460008AC
:105100002DE9F04F0C78444D04EB8404E4B2671DA4
:10511000FFB28DB02F2F3B4628BF2F2305932B784E
:1051200004933E4B029003EB44088E33894606926B
:1051300007930395059AE3B29A4206D82E2F8CBFA7
:10514000002001200DB0BDE8F08F079BE25C99F8CC
:1051500001301A4223D0DFF8CCB0DDF808A03BF8CC
:105160000139ADF8283053465E1C039B00211E44D4
:10517000049A5FFA8AF39A4215D8294BD87810FB23
:1051800001F000128DF82A000A98FFF75BF8C0F3CF
:105190000743C2B2C0F307212046FFF73DFD0134AB
:1051A00008F10208C6E716F8010B98F83030F279DA
:1051B0000991181A83B21D4698F831309B1A9AB299
:1051C00013FB03F300FB003080B20892FFF73FF8B7
:1051D000039A9BF804C0099903460AF10C0002EBFC
:1051E0004000089AB0F801008DF82A100CFB00FC72
:1051F0004FEA1C2029B20090069D0A9812B2A847D7
:10520000C0F307238DF828008DF82930C0F307413B
:105210000AF1010AACE700BF3B1E00203810002055
:10522000C41E0020C51E0020044B054A1B78013B0C
:1052300023EAE3730146D8B2FFF762BF3B1E0020AA
:105240005D4600080146024A0020FFF759BF00BF33
:105250005D460008044B054A1B78013B23EAE373D3
:105260000146D8B2FFF74CBF3B1E0020A546000800
:105270000146024A0020FFF743BF00BFA5460008D1
:10528000044B054A1B78013B23EAE3730146D8B27D
:10529000FFF736BF3B1E0020194700080146024AAF
:1052A0000020FFF72DBF00BF19470008044B054A37
:1052B0001B78013B23EAE3730146D8B2FFF720BF16
:1052C0003B1E0020914700080146024A0020FFF7DC
:1052D00017BF00BF91470008044B054A1B78013BEC
:1052E00023EAE3730146D8B2FFF70ABF3B1E002052
:1052F000DF4700080146024A0020FFF701BF00BF58
:10530000DF4700082DE9F3411D4A04785378DFF8A0
:105310007480054604EB84049078E4B243EA0023E9
:10532000661DD078F6B22F2E43EA0040374628BFDC
:105330002F27FEF787FFC0F307238DF80530C0F352
:1053400007438DF804008DF80630E3B29F4206D87B
:105350002E2E8CBF0020012002B0BDE8F08114F891
:1053600008206B781A4208D09DF806309DF804207A
:105370009DF805102046FFF74FFC0134E5E700BF1C
:10538000C41E0020C61000202DE9F043DFF8B890BD
:10539000047899F801804B4604EB840433F8012F1C
:1053A00085B0E4B29B78ADF80420651D8DF8063019
:1053B0008DF80480EDB22F2D064601982F4628BFA8
:1053C0002F27FEF73FFFC0F307238DF8093099F828
:1053D00004308DF8080098448DF80480C0F307402D
:1053E0008DF80A000198DFF86480FEF72BFFC0F308
:1053F00007238DF80D30C0F307438DF80C008DF8AE
:105400000E30E3B29F4206D82E2D8CBF0020012023
:1054100005B0BDE8F08314F808307278134211D05B
:10542000DB0743BF9DF80E309DF80C209DF80D1052
:105430009DF80A305CBF9DF808209DF809102046B1
:10544000FFF7EAFB0134DCE7C41E0020C610002091
:105450002DE9F74F204D047895F80480DFF87C9013
:105460002B4604EB8404E4B233F8012FADF800209E
:10547000661DF6B29B788DF802302F2EB246074695
:1054800028BF4FF02F0A4FEA9808A9F15D0BE3B24D
:105490009A4506D82E2E8CBF0020012003B0BDE80F
:1054A000F08F14F809207B781A4212D01BF81430C0
:1054B0006A781B0903FB08238DF800300098FEF77B
:1054C000C1FEC0F30743C2B2C0F307212046FFF775
:1054D000A3FB0134DBE700BFC41E0020C610002080
:1054E0002DE9F74F204D047895F80480DFF87C9083
:1054F0002B4604EB8404E4B233F8012FADF800200E
:10550000661DF6B29B788DF802302F2EB246074604
:1055100028BF4FF02F0A4FEA9808A9F15E0BE3B2BB
:105520009A4506D82E2E8CBF0020012003B0BDE87E
:10553000F08F14F809207B781A4213D01BF814302E
:1055400008FB03F26B7803EB52138DF800300098E0
:10555000FEF778FEC0F30743C2B2C0F3072120462E
:10556000FFF75AFB0134DAE7C41E0020C610002002
:105570002DE9F341294A04781346064633F8011F02
:10558000107993F80280264BADF8001004EB8404E8
:105590001B88E4B2651DC0085843EDB22F2DC0F33F
:1055A00007202F4628BF2F27FEF776FEA0F18002A6
:1055B00053B2002BBCBFC0F1800043B25B00DBB232
:1055C00013FB08F31B128DF802300098DFF85480AB
:1055D000FEF738FEC0F307238DF80400C0F3074040
:1055E0008DF805308DF80600E3B29F4206D82E2DC7
:1055F0008CBF0020012002B0BDE8F08114F8082023
:1056000073781A4208D09DF806309DF804209DF862
:1056100005102046FFF700FB0134E5E7C41E00201B
:10562000941E0020C610002037B5164B9A788DF8CE
:105630000120DA785D788DF802200446FCF73EFE02
:105640004FF4B471024605F1B400B0FBF1F301FB75
:1056500013035B1B48BF033302F0030243F38F03C2
:1056600003FB02538DF800300098FEF7EBFDC0F30A
:105670000743C2B2C0F30721204603B0BDE8304063
:10568000FFF7CABAC41E00202DE9F041867805460E
:1056900026BB214B214A1B7912881033FF2B28BFD0
:1056A000FF235343C3F30F230A21B3FBF1F201FBA2
:1056B00012339BB27BB9FCF701FE2F2390FBF3F270
:1056C00002FB1300164B6A78034493F88E301A429B
:1056D00001D0FFF7A9FF3046BDE8F0810478DFF87C
:1056E000448004EB8404E4B2661DF6B22F2E3746E4
:1056F00028BF2F27A74204DC2E2E8CBF00260126B0
:10570000E9E76A7814F808301A4202D02046FFF719
:105710008BFF0134EEE700BFC41E0020941E002062
:1057200038100020C610002013B50446FCF7C6FD53
:105730008DF80000FCF7C2FD094B8DF80100DB7805
:105740008DF802300098FEF77DFDC0F30743C2B22A
:10575000C0F30721204602B0BDE81040FFF75CBA55
:10576000C41E00202DE9F041867805462EBB214B52
:10577000214A1B7912881033FF2B28BFFF23534384
:10578000C3F30F230522B3FBF2F202EB82029B1A52
:105790009BB27BB9FCF792FD2F2390FBF3F202FB47
:1057A0001300164B6A78034493F88E301A4201D0E6
:1057B000FFF7BAFF3046BDE8F0810478DFF840809B
:1057C00004EB8404E4B2661DF6B22F2E374628BFE0
:1057D0002F27A74204DC2E2E8CBF00260126E9E7E6
:1057E0006A7814F808301A4202D02046FFF79CFF6E
:1057F0000134EEE7C41E0020941E00203810002063
:10580000C6100020014B9B68184700BF60DA0008F3
:105810002DE9F04F047804EB8404E4B204F10508A8
:105820005FFA88F84346302B8BB028BF30230193B2
:10583000837805464BB1002211461046FFF7E2FF80
:105840003B4830220021FCF7E1FCDFF8ECA0019B93
:10585000A34207DCB8F12F0F8CBF002001200BB052
:10586000BDE8F08F324A04F00706062303FB062347
:105870004FEAE40908AA13F809B05FFA89F1304643
:10588000FFF7B0F91FFA8BF304930BF1AA03FF2B78
:1058900028BFFF2303EB43030233DBB2ABF1550B0D
:1058A00002932BEAEB73039000270593039AFBB254
:1058B0009A420BD8049B1E490622013B02FB0616A6
:1058C00023EAE37306F809300134C0E70DF1200B39
:1058D000184A17F80B30134493F88E206B781A424D
:1058E00024D0059B029AC3F1AA038DF818309AF8C8
:1058F00002308DF819309AF8033013FB02F31B12B3
:105900008DF81A300698FEF79DFCC0F30721C0F30E
:1059100007438DF81C008DF81D108DF81E30C2B2A3
:10592000DBB21BF80700C9B2FFF776F90137BDE714
:10593000641E002038100020C41E002083782DE94A
:10594000F74F414D5BB1002211461046FFF75AFF59
:105950003E4830220021FCF759FC00232B70DFF871
:10596000EC900024C8464FF0FF0B464600272A78EB
:105970005FFA87FA5AEA020355D1FCF79FFC344BD1
:10598000984250DC88F800B06A4621465046FFF73E
:1059900029F978B132789DF80000D02A4AD9C0237D
:1059A000D03A5A432F23B2FBF3F3FF22DBB219465E
:1059B000FFF732F90137082F06F10606D7D1013477
:1059C000E4B2062C08F10108CFD12B780133DBB209
:1059D0001C2B37D900231F4C2B700723FE2548466C
:1059E00021460622072B05D190F82A60FF2E08BF1A
:1059F00080F82A5011F8066C013AFF2E04BF01F816
:105A0000065C0E7012F0FF0201F1010100F10100CD
:105A1000E8D1013B13F0FF03A4F10604DFD100201D
:105A200003B0BDE8F08F3278013AD2B2FD2A98BFB8
:105A30003270A9E7D023C2EB0222B2FBF3F20023BB
:105A4000D2B2B4E72B70EAE73A1E0020641E0020B1
:105A5000545555058E1E00202DE9F7438C780E46CF
:105A60002CB1097870786A46FFF7BCF80446324DCD
:105A700095F8008008EB0403082B23DDC4F1080728
:105A8000611C3A462944681CFCF726FB04F1090115
:105A90003A46294405F10900FCF71EFB05EB4401D9
:105AA0007A00193105F11900FCF716FB04F1110118
:105AB0003A46294405F1110008F1FF38FCF70CFBC8
:105AC00085F80080002228781C4F96469446D1B273
:105AD00050FA82F38C42DBB212D80444E4B2BEF135
